{
  "_format": "hh-sol-artifact-1",
  "contractName": "ProductNFT",
  "sourceName": "contracts/ProductNFT.sol",
  "abi": [
    {
      "inputs": [],
      "stateMutability": "nonpayable",
      "type": "constructor"
    },
    {
      "inputs": [],
      "name": "ApprovalCallerNotOwnerNorApproved",
      "type": "error"
    },
    {
      "inputs": [],
      "name": "ApprovalQueryForNonexistentToken",
      "type": "error"
    },
    {
      "inputs": [],
      "name": "BalanceQueryForZeroAddress",
      "type": "error"
    },
    {
      "inputs": [],
      "name": "MintERC2309QuantityExceedsLimit",
      "type": "error"
    },
    {
      "inputs": [],
      "name": "MintToZeroAddress",
      "type": "error"
    },
    {
      "inputs": [],
      "name": "MintZeroQuantity",
      "type": "error"
    },
    {
      "inputs": [],
      "name": "OwnerQueryForNonexistentToken",
      "type": "error"
    },
    {
      "inputs": [],
      "name": "OwnershipNotInitializedForExtraData",
      "type": "error"
    },
    {
      "inputs": [],
      "name": "TransferCallerNotOwnerNorApproved",
      "type": "error"
    },
    {
      "inputs": [],
      "name": "TransferFromIncorrectOwner",
      "type": "error"
    },
    {
      "inputs": [],
      "name": "TransferToNonERC721ReceiverImplementer",
      "type": "error"
    },
    {
      "inputs": [],
      "name": "TransferToZeroAddress",
      "type": "error"
    },
    {
      "inputs": [],
      "name": "URIQueryForNonexistentToken",
      "type": "error"
    },
    {
      "anonymous": false,
      "inputs": [
        {
          "indexed": true,
          "internalType": "address",
          "name": "owner",
          "type": "address"
        },
        {
          "indexed": true,
          "internalType": "address",
          "name": "approved",
          "type": "address"
        },
        {
          "indexed": true,
          "internalType": "uint256",
          "name": "tokenId",
          "type": "uint256"
        }
      ],
      "name": "Approval",
      "type": "event"
    },
    {
      "anonymous": false,
      "inputs": [
        {
          "indexed": true,
          "internalType": "address",
          "name": "owner",
          "type": "address"
        },
        {
          "indexed": true,
          "internalType": "address",
          "name": "operator",
          "type": "address"
        },
        {
          "indexed": false,
          "internalType": "bool",
          "name": "approved",
          "type": "bool"
        }
      ],
      "name": "ApprovalForAll",
      "type": "event"
    },
    {
      "anonymous": false,
      "inputs": [
        {
          "indexed": true,
          "internalType": "uint256",
          "name": "fromTokenId",
          "type": "uint256"
        },
        {
          "indexed": false,
          "internalType": "uint256",
          "name": "toTokenId",
          "type": "uint256"
        },
        {
          "indexed": true,
          "internalType": "address",
          "name": "from",
          "type": "address"
        },
        {
          "indexed": true,
          "internalType": "address",
          "name": "to",
          "type": "address"
        }
      ],
      "name": "ConsecutiveTransfer",
      "type": "event"
    },
    {
      "anonymous": false,
      "inputs": [
        {
          "indexed": true,
          "internalType": "address",
          "name": "from",
          "type": "address"
        },
        {
          "indexed": true,
          "internalType": "address",
          "name": "to",
          "type": "address"
        },
        {
          "indexed": true,
          "internalType": "uint256",
          "name": "tokenId",
          "type": "uint256"
        }
      ],
      "name": "Transfer",
      "type": "event"
    },
    {
      "inputs": [
        {
          "internalType": "address",
          "name": "to",
          "type": "address"
        },
        {
          "internalType": "uint256",
          "name": "tokenId",
          "type": "uint256"
        }
      ],
      "name": "approve",
      "outputs": [],
      "stateMutability": "payable",
      "type": "function"
    },
    {
      "inputs": [
        {
          "internalType": "address",
          "name": "owner",
          "type": "address"
        }
      ],
      "name": "balanceOf",
      "outputs": [
        {
          "internalType": "uint256",
          "name": "",
          "type": "uint256"
        }
      ],
      "stateMutability": "view",
      "type": "function"
    },
    {
      "inputs": [
        {
          "internalType": "uint256",
          "name": "",
          "type": "uint256"
        },
        {
          "internalType": "uint256",
          "name": "",
          "type": "uint256"
        }
      ],
      "name": "batchIdToBid",
      "outputs": [
        {
          "internalType": "address",
          "name": "bidder",
          "type": "address"
        },
        {
          "internalType": "uint256",
          "name": "bidPrice",
          "type": "uint256"
        },
        {
          "internalType": "bool",
          "name": "isWinner",
          "type": "bool"
        }
      ],
      "stateMutability": "view",
      "type": "function"
    },
    {
      "inputs": [
        {
          "internalType": "uint256",
          "name": "quantity",
          "type": "uint256"
        },
        {
          "internalType": "string",
          "name": "name",
          "type": "string"
        },
        {
          "internalType": "uint256",
          "name": "batchUid",
          "type": "uint256"
        }
      ],
      "name": "batchMint",
      "outputs": [],
      "stateMutability": "payable",
      "type": "function"
    },
    {
      "inputs": [
        {
          "internalType": "uint256",
          "name": "batchId",
          "type": "uint256"
        }
      ],
      "name": "checkAuthentication",
      "outputs": [
        {
          "components": [
            {
              "internalType": "string",
              "name": "name",
              "type": "string"
            },
            {
              "internalType": "uint256",
              "name": "quantity",
              "type": "uint256"
            },
            {
              "internalType": "uint256",
              "name": "startTokenId",
              "type": "uint256"
            },
            {
              "internalType": "uint256",
              "name": "endTokenId",
              "type": "uint256"
            },
            {
              "internalType": "bool",
              "name": "verification",
              "type": "bool"
            },
            {
              "internalType": "address",
              "name": "owner",
              "type": "address"
            },
            {
              "internalType": "uint256",
              "name": "currentPrice",
              "type": "uint256"
            }
          ],
          "internalType": "struct ProductNFT.Batch",
          "name": "",
          "type": "tuple"
        }
      ],
      "stateMutability": "view",
      "type": "function"
    },
    {
      "inputs": [
        {
          "internalType": "uint256",
          "name": "batchId",
          "type": "uint256"
        },
        {
          "internalType": "address",
          "name": "winnerAddress",
          "type": "address"
        }
      ],
      "name": "escrowBatch",
      "outputs": [],
      "stateMutability": "nonpayable",
      "type": "function"
    },
    {
      "inputs": [
        {
          "internalType": "uint256",
          "name": "batchId",
          "type": "uint256"
        }
      ],
      "name": "escrowBid",
      "outputs": [],
      "stateMutability": "payable",
      "type": "function"
    },
    {
      "inputs": [
        {
          "internalType": "uint256",
          "name": "batchId",
          "type": "uint256"
        }
      ],
      "name": "escrowEndBuyer",
      "outputs": [],
      "stateMutability": "nonpayable",
      "type": "function"
    },
    {
      "inputs": [
        {
          "internalType": "uint256",
          "name": "batchId",
          "type": "uint256"
        }
      ],
      "name": "escrowEndLogistics",
      "outputs": [],
      "stateMutability": "nonpayable",
      "type": "function"
    },
    {
      "inputs": [
        {
          "internalType": "uint256",
          "name": "tokenId",
          "type": "uint256"
        }
      ],
      "name": "getApproved",
      "outputs": [
        {
          "internalType": "address",
          "name": "",
          "type": "address"
        }
      ],
      "stateMutability": "view",
      "type": "function"
    },
    {
      "inputs": [
        {
          "internalType": "uint256",
          "name": "batchId",
          "type": "uint256"
        }
      ],
      "name": "getBatchData",
      "outputs": [
        {
          "components": [
            {
              "internalType": "string",
              "name": "name",
              "type": "string"
            },
            {
              "internalType": "uint256",
              "name": "quantity",
              "type": "uint256"
            },
            {
              "internalType": "uint256",
              "name": "startTokenId",
              "type": "uint256"
            },
            {
              "internalType": "uint256",
              "name": "endTokenId",
              "type": "uint256"
            },
            {
              "internalType": "bool",
              "name": "verification",
              "type": "bool"
            },
            {
              "internalType": "address",
              "name": "owner",
              "type": "address"
            },
            {
              "internalType": "uint256",
              "name": "currentPrice",
              "type": "uint256"
            }
          ],
          "internalType": "struct ProductNFT.Batch",
          "name": "",
          "type": "tuple"
        }
      ],
      "stateMutability": "view",
      "type": "function"
    },
    {
      "inputs": [
        {
          "internalType": "uint256",
          "name": "batchId",
          "type": "uint256"
        }
      ],
      "name": "getOwner",
      "outputs": [
        {
          "internalType": "address",
          "name": "",
          "type": "address"
        }
      ],
      "stateMutability": "view",
      "type": "function"
    },
    {
      "inputs": [
        {
          "internalType": "address",
          "name": "owner",
          "type": "address"
        },
        {
          "internalType": "address",
          "name": "operator",
          "type": "address"
        }
      ],
      "name": "isApprovedForAll",
      "outputs": [
        {
          "internalType": "bool",
          "name": "",
          "type": "bool"
        }
      ],
      "stateMutability": "view",
      "type": "function"
    },
    {
      "inputs": [],
      "name": "name",
      "outputs": [
        {
          "internalType": "string",
          "name": "",
          "type": "string"
        }
      ],
      "stateMutability": "view",
      "type": "function"
    },
    {
      "inputs": [
        {
          "internalType": "uint256",
          "name": "tokenId",
          "type": "uint256"
        }
      ],
      "name": "ownerOf",
      "outputs": [
        {
          "internalType": "address",
          "name": "",
          "type": "address"
        }
      ],
      "stateMutability": "view",
      "type": "function"
    },
    {
      "inputs": [
        {
          "internalType": "uint256",
          "name": "batchId",
          "type": "uint256"
        }
      ],
      "name": "regulatorApproval",
      "outputs": [],
      "stateMutability": "nonpayable",
      "type": "function"
    },
    {
      "inputs": [
        {
          "internalType": "address",
          "name": "from",
          "type": "address"
        },
        {
          "internalType": "address",
          "name": "to",
          "type": "address"
        },
        {
          "internalType": "uint256",
          "name": "tokenId",
          "type": "uint256"
        }
      ],
      "name": "safeTransferFrom",
      "outputs": [],
      "stateMutability": "payable",
      "type": "function"
    },
    {
      "inputs": [
        {
          "internalType": "address",
          "name": "from",
          "type": "address"
        },
        {
          "internalType": "address",
          "name": "to",
          "type": "address"
        },
        {
          "internalType": "uint256",
          "name": "tokenId",
          "type": "uint256"
        },
        {
          "internalType": "bytes",
          "name": "_data",
          "type": "bytes"
        }
      ],
      "name": "safeTransferFrom",
      "outputs": [],
      "stateMutability": "payable",
      "type": "function"
    },
    {
      "inputs": [
        {
          "internalType": "address",
          "name": "operator",
          "type": "address"
        },
        {
          "internalType": "bool",
          "name": "approved",
          "type": "bool"
        }
      ],
      "name": "setApprovalForAll",
      "outputs": [],
      "stateMutability": "nonpayable",
      "type": "function"
    },
    {
      "inputs": [
        {
          "internalType": "bytes4",
          "name": "interfaceId",
          "type": "bytes4"
        }
      ],
      "name": "supportsInterface",
      "outputs": [
        {
          "internalType": "bool",
          "name": "",
          "type": "bool"
        }
      ],
      "stateMutability": "view",
      "type": "function"
    },
    {
      "inputs": [],
      "name": "symbol",
      "outputs": [
        {
          "internalType": "string",
          "name": "",
          "type": "string"
        }
      ],
      "stateMutability": "view",
      "type": "function"
    },
    {
      "inputs": [
        {
          "internalType": "uint256",
          "name": "tokenId",
          "type": "uint256"
        }
      ],
      "name": "tokenURI",
      "outputs": [
        {
          "internalType": "string",
          "name": "",
          "type": "string"
        }
      ],
      "stateMutability": "view",
      "type": "function"
    },
    {
      "inputs": [],
      "name": "totalSupply",
      "outputs": [
        {
          "internalType": "uint256",
          "name": "",
          "type": "uint256"
        }
      ],
      "stateMutability": "view",
      "type": "function"
    },
    {
      "inputs": [
        {
          "internalType": "address",
          "name": "from",
          "type": "address"
        },
        {
          "internalType": "address",
          "name": "to",
          "type": "address"
        },
        {
          "internalType": "uint256",
          "name": "tokenId",
          "type": "uint256"
        }
      ],
      "name": "transferFrom",
      "outputs": [],
      "stateMutability": "payable",
      "type": "function"
    }
  ],
  "bytecode": "0x60806040523480156200001157600080fd5b506040518060400160405280600a81526020017f5468726565436861696e000000000000000000000000000000000000000000008152506040518060400160405280600381526020017f544843000000000000000000000000000000000000000000000000000000000081525081600290816200008f91906200033f565b508060039081620000a191906200033f565b50620000b2620000c060201b60201c565b600081905550505062000426565b600090565b600081519050919050565b7f4e487b7100000000000000000000000000000000000000000000000000000000600052604160045260246000fd5b7f4e487b7100000000000000000000000000000000000000000000000000000000600052602260045260246000fd5b600060028204905060018216806200014757607f821691505b6020821081036200015d576200015c620000ff565b5b50919050565b60008190508160005260206000209050919050565b60006020601f8301049050919050565b600082821b905092915050565b600060088302620001c77fffffffffffffffffffffffffffffffffffffffffffffffffffffffffffffffff8262000188565b620001d3868362000188565b95508019841693508086168417925050509392505050565b6000819050919050565b6000819050919050565b6000620002206200021a6200021484620001eb565b620001f5565b620001eb565b9050919050565b6000819050919050565b6200023c83620001ff565b620002546200024b8262000227565b84845462000195565b825550505050565b600090565b6200026b6200025c565b6200027881848462000231565b505050565b5b81811015620002a0576200029460008262000261565b6001810190506200027e565b5050565b601f821115620002ef57620002b98162000163565b620002c48462000178565b81016020851015620002d4578190505b620002ec620002e38562000178565b8301826200027d565b50505b505050565b600082821c905092915050565b60006200031460001984600802620002f4565b1980831691505092915050565b60006200032f838362000301565b9150826002028217905092915050565b6200034a82620000c5565b67ffffffffffffffff811115620003665762000365620000d0565b5b6200037282546200012e565b6200037f828285620002a4565b600060209050601f831160018114620003b75760008415620003a2578287015190505b620003ae858262000321565b8655506200041e565b601f198416620003c78662000163565b60005b82811015620003f157848901518255600182019150602085019450602081019050620003ca565b868310156200041157848901516200040d601f89168262000301565b8355505b6001600288020188555050505b505050505050565b61350180620004366000396000f3fe60806040526004361061014b5760003560e01c80636352211e116100b6578063b88d4fde1161006f578063b88d4fde14610492578063c41a360a146104ae578063c6dfb2ef146104eb578063c87b56dd14610507578063df5408ef14610544578063e985e9c51461056d5761014b565b80636352211e1461035c57806370a0823114610399578063899f4df4146103d657806395d89b4114610415578063a22cb46514610440578063a31df957146104695761014b565b806323b872dd1161010857806323b872dd1461026557806327124cb71461028157806332e1408f146102be57806341d00f23146102e757806342842e0e146103035780635a8b050d1461031f5761014b565b806301ffc9a71461015057806306fdde031461018d578063081812fc146101b8578063095ea7b3146101f557806318160ddd146102115780631e9a08651461023c575b600080fd5b34801561015c57600080fd5b50610177600480360381019061017291906126f4565b6105aa565b604051610184919061273c565b60405180910390f35b34801561019957600080fd5b506101a261063c565b6040516101af91906127e7565b60405180910390f35b3480156101c457600080fd5b506101df60048036038101906101da919061283f565b6106ce565b6040516101ec91906128ad565b60405180910390f35b61020f600480360381019061020a91906128f4565b61074d565b005b34801561021d57600080fd5b50610226610891565b6040516102339190612943565b60405180910390f35b34801561024857600080fd5b50610263600480360381019061025e919061283f565b6108a8565b005b61027f600480360381019061027a919061295e565b610c4d565b005b34801561028d57600080fd5b506102a860048036038101906102a3919061283f565b610f6f565b6040516102b59190612ac4565b60405180910390f35b3480156102ca57600080fd5b506102e560048036038101906102e0919061283f565b6110c7565b005b61030160048036038101906102fc9190612c1b565b6110f9565b005b61031d6004803603810190610318919061295e565b611235565b005b34801561032b57600080fd5b506103466004803603810190610341919061283f565b611255565b6040516103539190612ac4565b60405180910390f35b34801561036857600080fd5b50610383600480360381019061037e919061283f565b6113ad565b60405161039091906128ad565b60405180910390f35b3480156103a557600080fd5b506103c060048036038101906103bb9190612c8a565b6113bf565b6040516103cd9190612943565b60405180910390f35b3480156103e257600080fd5b506103fd60048036038101906103f89190612cb7565b611477565b60405161040c93929190612cf7565b60405180910390f35b34801561042157600080fd5b5061042a6114eb565b60405161043791906127e7565b60405180910390f35b34801561044c57600080fd5b5061046760048036038101906104629190612d5a565b61157d565b005b34801561047557600080fd5b50610490600480360381019061048b919061283f565b611688565b005b6104ac60048036038101906104a79190612e3b565b611a2d565b005b3480156104ba57600080fd5b506104d560048036038101906104d0919061283f565b611aa0565b6040516104e291906128ad565b60405180910390f35b6105056004803603810190610500919061283f565b611ae0565b005b34801561051357600080fd5b5061052e6004803603810190610529919061283f565b611bf2565b60405161053b91906127e7565b60405180910390f35b34801561055057600080fd5b5061056b60048036038101906105669190612ebe565b611c90565b005b34801561057957600080fd5b50610594600480360381019061058f9190612efe565b612009565b6040516105a1919061273c565b60405180910390f35b60006301ffc9a760e01b827bffffffffffffffffffffffffffffffffffffffffffffffffffffffff1916148061060557506380ac58cd60e01b827bffffffffffffffffffffffffffffffffffffffffffffffffffffffff1916145b806106355750635b5e139f60e01b827bffffffffffffffffffffffffffffffffffffffffffffffffffffffff1916145b9050919050565b60606002805461064b90612f6d565b80601f016020809104026020016040519081016040528092919081815260200182805461067790612f6d565b80156106c45780601f10610699576101008083540402835291602001916106c4565b820191906000526020600020905b8154815290600101906020018083116106a757829003601f168201915b5050505050905090565b60006106d98261209d565b61070f576040517fcf4700e400000000000000000000000000000000000000000000000000000000815260040160405180910390fd5b6006600083815260200190815260200160002060000160009054906101000a900473ffffffffffffffffffffffffffffffffffffffff169050919050565b6000610758826113ad565b90508073ffffffffffffffffffffffffffffffffffffffff166107796120fc565b73ffffffffffffffffffffffffffffffffffffffff16146107dc576107a5816107a06120fc565b612009565b6107db576040517fcfb3b94200000000000000000000000000000000000000000000000000000000815260040160405180910390fd5b5b826006600084815260200190815260200160002060000160006101000a81548173ffffffffffffffffffffffffffffffffffffffff021916908373ffffffffffffffffffffffffffffffffffffffff160217905550818373ffffffffffffffffffffffffffffffffffffffff168273ffffffffffffffffffffffffffffffffffffffff167f8c5be1e5ebec7d5bd14f71427d1e84f3dd0314c0f7b2291e5b200ac8c7c3b92560405160405180910390a4505050565b600061089b612104565b6001546000540303905090565b6009600082815260200190815260200160002060009054906101000a900460ff16610908576040517f08c379a00000000000000000000000000000000000000000000000000000000081526004016108ff90613010565b60405180910390fd5b6001600d600083815260200190815260200160002060006101000a81548160ff021916908315150217905550600c600082815260200190815260200160002060009054906101000a900460ff1615610c4a576000600860008381526020019081526020016000206040518060e001604052908160008201805461098a90612f6d565b80601f01602080910402602001604051908101604052809291908181526020018280546109b690612f6d565b8015610a035780601f106109d857610100808354040283529160200191610a03565b820191906000526020600020905b8154815290600101906020018083116109e657829003601f168201915b505050505081526020016001820154815260200160028201548152602001600382015481526020016004820160009054906101000a900460ff161515151581526020016004820160019054906101000a900473ffffffffffffffffffffffffffffffffffffffff1673ffffffffffffffffffffffffffffffffffffffff1673ffffffffffffffffffffffffffffffffffffffff1681526020016005820154815250509050600b600083815260200190815260200160002060009054906101000a900473ffffffffffffffffffffffffffffffffffffffff1673ffffffffffffffffffffffffffffffffffffffff166108fc8260c001519081150290604051600060405180830381858888f19350505050158015610b24573d6000803e3d6000fd5b50600a600083815260200190815260200160002060009054906101000a900473ffffffffffffffffffffffffffffffffffffffff166008600084815260200190815260200160002060040160016101000a81548173ffffffffffffffffffffffffffffffffffffffff021916908373ffffffffffffffffffffffffffffffffffffffff1602179055506000816040015190505b8160600151811015610c4757610c34600b600085815260200190815260200160002060009054906101000a900473ffffffffffffffffffffffffffffffffffffffff16600a600086815260200190815260200160002060009054906101000a900473ffffffffffffffffffffffffffffffffffffffff1683611235565b8080610c3f9061305f565b915050610bb7565b50505b50565b6000610c5882612109565b90508373ffffffffffffffffffffffffffffffffffffffff168173ffffffffffffffffffffffffffffffffffffffff1614610cbf576040517fa114810000000000000000000000000000000000000000000000000000000000815260040160405180910390fd5b600080610ccb846121d5565b91509150610ce18187610cdc6120fc565b6121fc565b610d2d57610cf686610cf16120fc565b612009565b610d2c576040517f59c896be00000000000000000000000000000000000000000000000000000000815260040160405180910390fd5b5b600073ffffffffffffffffffffffffffffffffffffffff168573ffffffffffffffffffffffffffffffffffffffff1603610d93576040517fea553b3400000000000000000000000000000000000000000000000000000000815260040160405180910390fd5b610da08686866001612240565b8015610dab57600082555b600560008773ffffffffffffffffffffffffffffffffffffffff1673ffffffffffffffffffffffffffffffffffffffff168152602001908152602001600020600081546001900391905081905550600560008673ffffffffffffffffffffffffffffffffffffffff1673ffffffffffffffffffffffffffffffffffffffff1681526020019081526020016000206000815460010191905081905550610e7985610e55888887612246565b7c02000000000000000000000000000000000000000000000000000000001761226e565b600460008681526020019081526020016000208190555060007c0200000000000000000000000000000000000000000000000000000000841603610eff5760006001850190506000600460008381526020019081526020016000205403610efd576000548114610efc578360046000838152602001908152602001600020819055505b5b505b838573ffffffffffffffffffffffffffffffffffffffff168773ffffffffffffffffffffffffffffffffffffffff167fddf252ad1be2c89b69c2b068fc378daa952ba7f163c4a11628f55a4df523b3ef60405160405180910390a4610f678686866001612299565b505050505050565b610f77612633565b600860008381526020019081526020016000206040518060e0016040529081600082018054610fa590612f6d565b80601f0160208091040260200160405190810160405280929190818152602001828054610fd190612f6d565b801561101e5780601f10610ff35761010080835404028352916020019161101e565b820191906000526020600020905b81548152906001019060200180831161100157829003601f168201915b505050505081526020016001820154815260200160028201548152602001600382015481526020016004820160009054906101000a900460ff161515151581526020016004820160019054906101000a900473ffffffffffffffffffffffffffffffffffffffff1673ffffffffffffffffffffffffffffffffffffffff1673ffffffffffffffffffffffffffffffffffffffff1681526020016005820154815250509050919050565b60016008600083815260200190815260200160002060040160006101000a81548160ff02191690831515021790555050565b600061110361229f565b9050826008600084815260200190815260200160002060000190816111289190613253565b50836008600084815260200190815260200160002060010181905550806008600084815260200190815260200160002060020181905550838161116b9190613325565b600860008481526020019081526020016000206003018190555060006008600084815260200190815260200160002060040160006101000a81548160ff021916908315150217905550336008600084815260200190815260200160002060040160016101000a81548173ffffffffffffffffffffffffffffffffffffffff021916908373ffffffffffffffffffffffffffffffffffffffff1602179055506000600860008481526020019081526020016000206005018190555061122f33856122a8565b50505050565b61125083838360405180602001604052806000815250611a2d565b505050565b61125d612633565b600860008381526020019081526020016000206040518060e001604052908160008201805461128b90612f6d565b80601f01602080910402602001604051908101604052809291908181526020018280546112b790612f6d565b80156113045780601f106112d957610100808354040283529160200191611304565b820191906000526020600020905b8154815290600101906020018083116112e757829003601f168201915b505050505081526020016001820154815260200160028201548152602001600382015481526020016004820160009054906101000a900460ff161515151581526020016004820160019054906101000a900473ffffffffffffffffffffffffffffffffffffffff1673ffffffffffffffffffffffffffffffffffffffff1673ffffffffffffffffffffffffffffffffffffffff1681526020016005820154815250509050919050565b60006113b882612109565b9050919050565b60008073ffffffffffffffffffffffffffffffffffffffff168273ffffffffffffffffffffffffffffffffffffffff1603611426576040517f8f4eb60400000000000000000000000000000000000000000000000000000000815260040160405180910390fd5b67ffffffffffffffff600560008473ffffffffffffffffffffffffffffffffffffffff1673ffffffffffffffffffffffffffffffffffffffff16815260200190815260200160002054169050919050565b600e602052816000526040600020818154811061149357600080fd5b9060005260206000209060030201600091509150508060000160009054906101000a900473ffffffffffffffffffffffffffffffffffffffff16908060010154908060020160009054906101000a900460ff16905083565b6060600380546114fa90612f6d565b80601f016020809104026020016040519081016040528092919081815260200182805461152690612f6d565b80156115735780601f1061154857610100808354040283529160200191611573565b820191906000526020600020905b81548152906001019060200180831161155657829003601f168201915b5050505050905090565b806007600061158a6120fc565b73ffffffffffffffffffffffffffffffffffffffff1673ffffffffffffffffffffffffffffffffffffffff16815260200190815260200160002060008473ffffffffffffffffffffffffffffffffffffffff1673ffffffffffffffffffffffffffffffffffffffff16815260200190815260200160002060006101000a81548160ff0219169083151502179055508173ffffffffffffffffffffffffffffffffffffffff166116376120fc565b73ffffffffffffffffffffffffffffffffffffffff167f17307eab39ab6107e8899845ad3d59bd9653f200f220920489ca2b5937696c318360405161167c919061273c565b60405180910390a35050565b6009600082815260200190815260200160002060009054906101000a900460ff166116e8576040517f08c379a00000000000000000000000000000000000000000000000000000000081526004016116df90613010565b60405180910390fd5b6001600c600083815260200190815260200160002060006101000a81548160ff021916908315150217905550600d600082815260200190815260200160002060009054906101000a900460ff1615611a2a576000600860008381526020019081526020016000206040518060e001604052908160008201805461176a90612f6d565b80601f016020809104026020016040519081016040528092919081815260200182805461179690612f6d565b80156117e35780601f106117b8576101008083540402835291602001916117e3565b820191906000526020600020905b8154815290600101906020018083116117c657829003601f168201915b505050505081526020016001820154815260200160028201548152602001600382015481526020016004820160009054906101000a900460ff161515151581526020016004820160019054906101000a900473ffffffffffffffffffffffffffffffffffffffff1673ffffffffffffffffffffffffffffffffffffffff1673ffffffffffffffffffffffffffffffffffffffff1681526020016005820154815250509050600b600083815260200190815260200160002060009054906101000a900473ffffffffffffffffffffffffffffffffffffffff1673ffffffffffffffffffffffffffffffffffffffff166108fc8260c001519081150290604051600060405180830381858888f19350505050158015611904573d6000803e3d6000fd5b50600a600083815260200190815260200160002060009054906101000a900473ffffffffffffffffffffffffffffffffffffffff166008600084815260200190815260200160002060040160016101000a81548173ffffffffffffffffffffffffffffffffffffffff021916908373ffffffffffffffffffffffffffffffffffffffff1602179055506000816040015190505b8160600151811015611a2757611a14600b600085815260200190815260200160002060009054906101000a900473ffffffffffffffffffffffffffffffffffffffff16600a600086815260200190815260200160002060009054906101000a900473ffffffffffffffffffffffffffffffffffffffff1683611235565b8080611a1f9061305f565b915050611997565b50505b50565b611a38848484610c4d565b60008373ffffffffffffffffffffffffffffffffffffffff163b14611a9a57611a6384848484612463565b611a99576040517fd1a57ed600000000000000000000000000000000000000000000000000000000815260040160405180910390fd5b5b50505050565b60006008600083815260200190815260200160002060040160019054906101000a900473ffffffffffffffffffffffffffffffffffffffff169050919050565b600e600082815260200190815260200160002060405180606001604052803373ffffffffffffffffffffffffffffffffffffffff16815260200134815260200160001515815250908060018154018082558091505060019003906000526020600020906003020160009091909190915060008201518160000160006101000a81548173ffffffffffffffffffffffffffffffffffffffff021916908373ffffffffffffffffffffffffffffffffffffffff1602179055506020820151816001015560408201518160020160006101000a81548160ff021916908315150217905550505060016009600083815260200190815260200160002060006101000a81548160ff02191690831515021790555050565b6060611bfd8261209d565b611c33576040517fa14c4b5000000000000000000000000000000000000000000000000000000000815260040160405180910390fd5b6000611c3d6125b3565b90506000815103611c5d5760405180602001604052806000815250611c88565b80611c67846125ca565b604051602001611c78929190613395565b6040516020818303038152906040525b915050919050565b6009600083815260200190815260200160002060009054906101000a900460ff16611cf0576040517f08c379a0000000000000000000000000000000000000000000000000000000008152600401611ce790613010565b60405180910390fd5b6008600083815260200190815260200160002060040160019054906101000a900473ffffffffffffffffffffffffffffffffffffffff16600b600084815260200190815260200160002060006101000a81548173ffffffffffffffffffffffffffffffffffffffff021916908373ffffffffffffffffffffffffffffffffffffffff160217905550306008600084815260200190815260200160002060040160016101000a81548173ffffffffffffffffffffffffffffffffffffffff021916908373ffffffffffffffffffffffffffffffffffffffff16021790555060005b600e600084815260200190815260200160002080549050811015612004578173ffffffffffffffffffffffffffffffffffffffff16600e60008581526020019081526020016000208281548110611e2a57611e296133b9565b5b906000526020600020906003020160000160009054906101000a900473ffffffffffffffffffffffffffffffffffffffff1673ffffffffffffffffffffffffffffffffffffffff1603611f1d576001600e60008581526020019081526020016000208281548110611e9e57611e9d6133b9565b5b906000526020600020906003020160020160006101000a81548160ff02191690831515021790555081600a600085815260200190815260200160002060006101000a81548173ffffffffffffffffffffffffffffffffffffffff021916908373ffffffffffffffffffffffffffffffffffffffff160217905550611ff1565b600e60008481526020019081526020016000208181548110611f4257611f416133b9565b5b906000526020600020906003020160000160009054906101000a900473ffffffffffffffffffffffffffffffffffffffff1673ffffffffffffffffffffffffffffffffffffffff166108fc600e60008681526020019081526020016000208381548110611fb257611fb16133b9565b5b9060005260206000209060030201600101549081150290604051600060405180830381858888f19350505050158015611fef573d6000803e3d6000fd5b505b8080611ffc9061305f565b915050611dd0565b505050565b6000600760008473ffffffffffffffffffffffffffffffffffffffff1673ffffffffffffffffffffffffffffffffffffffff16815260200190815260200160002060008373ffffffffffffffffffffffffffffffffffffffff1673ffffffffffffffffffffffffffffffffffffffff16815260200190815260200160002060009054906101000a900460ff16905092915050565b6000816120a8612104565b111580156120b7575060005482105b80156120f5575060007c0100000000000000000000000000000000000000000000000000000000600460008581526020019081526020016000205416145b9050919050565b600033905090565b600090565b60008082905080612118612104565b1161219e5760005481101561219d5760006004600083815260200190815260200160002054905060007c010000000000000000000000000000000000000000000000000000000082160361219b575b60008103612191576004600083600190039350838152602001908152602001600020549050612167565b80925050506121d0565b505b5b6040517fdf2d9b4200000000000000000000000000000000000000000000000000000000815260040160405180910390fd5b919050565b60008060006006600085815260200190815260200160002090508092508254915050915091565b600073ffffffffffffffffffffffffffffffffffffffff8316925073ffffffffffffffffffffffffffffffffffffffff821691508382148383141790509392505050565b50505050565b60008060e883901c905060e861225d86868461261a565b62ffffff16901b9150509392505050565b600073ffffffffffffffffffffffffffffffffffffffff83169250814260a01b178317905092915050565b50505050565b60008054905090565b600080549050600082036122e8576040517fb562e8dd00000000000000000000000000000000000000000000000000000000815260040160405180910390fd5b6122f56000848385612240565b600160406001901b178202600560008573ffffffffffffffffffffffffffffffffffffffff1673ffffffffffffffffffffffffffffffffffffffff1681526020019081526020016000206000828254019250508190555061236c8361235d6000866000612246565b61236685612623565b1761226e565b6004600083815260200190815260200160002081905550600080838301905073ffffffffffffffffffffffffffffffffffffffff85169150828260007fddf252ad1be2c89b69c2b068fc378daa952ba7f163c4a11628f55a4df523b3ef600080a4600183015b81811461240d57808360007fddf252ad1be2c89b69c2b068fc378daa952ba7f163c4a11628f55a4df523b3ef600080a46001810190506123d2565b5060008203612448576040517f2e07630000000000000000000000000000000000000000000000000000000000815260040160405180910390fd5b80600081905550505061245e6000848385612299565b505050565b60008373ffffffffffffffffffffffffffffffffffffffff1663150b7a026124896120fc565b8786866040518563ffffffff1660e01b81526004016124ab949392919061343d565b6020604051808303816000875af19250505080156124e757506040513d601f19601f820116820180604052508101906124e4919061349e565b60015b612560573d8060008114612517576040519150601f19603f3d011682016040523d82523d6000602084013e61251c565b606091505b506000815103612558576040517fd1a57ed600000000000000000000000000000000000000000000000000000000815260040160405180910390fd5b805181602001fd5b63150b7a0260e01b7bffffffffffffffffffffffffffffffffffffffffffffffffffffffff1916817bffffffffffffffffffffffffffffffffffffffffffffffffffffffff191614915050949350505050565b606060405180602001604052806000815250905090565b606060a060405101806040526020810391506000825281835b60011561260557600184039350600a81066030018453600a81049050806125e3575b50828103602084039350808452505050919050565b60009392505050565b60006001821460e11b9050919050565b6040518060e0016040528060608152602001600081526020016000815260200160008152602001600015158152602001600073ffffffffffffffffffffffffffffffffffffffff168152602001600081525090565b6000604051905090565b600080fd5b600080fd5b60007fffffffff0000000000000000000000000000000000000000000000000000000082169050919050565b6126d18161269c565b81146126dc57600080fd5b50565b6000813590506126ee816126c8565b92915050565b60006020828403121561270a57612709612692565b5b6000612718848285016126df565b91505092915050565b60008115159050919050565b61273681612721565b82525050565b6000602082019050612751600083018461272d565b92915050565b600081519050919050565b600082825260208201905092915050565b60005b83811015612791578082015181840152602081019050612776565b60008484015250505050565b6000601f19601f8301169050919050565b60006127b982612757565b6127c38185612762565b93506127d3818560208601612773565b6127dc8161279d565b840191505092915050565b6000602082019050818103600083015261280181846127ae565b905092915050565b6000819050919050565b61281c81612809565b811461282757600080fd5b50565b60008135905061283981612813565b92915050565b60006020828403121561285557612854612692565b5b60006128638482850161282a565b91505092915050565b600073ffffffffffffffffffffffffffffffffffffffff82169050919050565b60006128978261286c565b9050919050565b6128a78161288c565b82525050565b60006020820190506128c2600083018461289e565b92915050565b6128d18161288c565b81146128dc57600080fd5b50565b6000813590506128ee816128c8565b92915050565b6000806040838503121561290b5761290a612692565b5b6000612919858286016128df565b925050602061292a8582860161282a565b9150509250929050565b61293d81612809565b82525050565b60006020820190506129586000830184612934565b92915050565b60008060006060848603121561297757612976612692565b5b6000612985868287016128df565b9350506020612996868287016128df565b92505060406129a78682870161282a565b9150509250925092565b600082825260208201905092915050565b60006129cd82612757565b6129d781856129b1565b93506129e7818560208601612773565b6129f08161279d565b840191505092915050565b612a0481612809565b82525050565b612a1381612721565b82525050565b612a228161288c565b82525050565b600060e0830160008301518482036000860152612a4582826129c2565b9150506020830151612a5a60208601826129fb565b506040830151612a6d60408601826129fb565b506060830151612a8060608601826129fb565b506080830151612a936080860182612a0a565b5060a0830151612aa660a0860182612a19565b5060c0830151612ab960c08601826129fb565b508091505092915050565b60006020820190508181036000830152612ade8184612a28565b905092915050565b600080fd5b600080fd5b7f4e487b7100000000000000000000000000000000000000000000000000000000600052604160045260246000fd5b612b288261279d565b810181811067ffffffffffffffff82111715612b4757612b46612af0565b5b80604052505050565b6000612b5a612688565b9050612b668282612b1f565b919050565b600067ffffffffffffffff821115612b8657612b85612af0565b5b612b8f8261279d565b9050602081019050919050565b82818337600083830152505050565b6000612bbe612bb984612b6b565b612b50565b905082815260208101848484011115612bda57612bd9612aeb565b5b612be5848285612b9c565b509392505050565b600082601f830112612c0257612c01612ae6565b5b8135612c12848260208601612bab565b91505092915050565b600080600060608486031215612c3457612c33612692565b5b6000612c428682870161282a565b935050602084013567ffffffffffffffff811115612c6357612c62612697565b5b612c6f86828701612bed565b9250506040612c808682870161282a565b9150509250925092565b600060208284031215612ca057612c9f612692565b5b6000612cae848285016128df565b91505092915050565b60008060408385031215612cce57612ccd612692565b5b6000612cdc8582860161282a565b9250506020612ced8582860161282a565b9150509250929050565b6000606082019050612d0c600083018661289e565b612d196020830185612934565b612d26604083018461272d565b949350505050565b612d3781612721565b8114612d4257600080fd5b50565b600081359050612d5481612d2e565b92915050565b60008060408385031215612d7157612d70612692565b5b6000612d7f858286016128df565b9250506020612d9085828601612d45565b9150509250929050565b600067ffffffffffffffff821115612db557612db4612af0565b5b612dbe8261279d565b9050602081019050919050565b6000612dde612dd984612d9a565b612b50565b905082815260208101848484011115612dfa57612df9612aeb565b5b612e05848285612b9c565b509392505050565b600082601f830112612e2257612e21612ae6565b5b8135612e32848260208601612dcb565b91505092915050565b60008060008060808587031215612e5557612e54612692565b5b6000612e63878288016128df565b9450506020612e74878288016128df565b9350506040612e858782880161282a565b925050606085013567ffffffffffffffff811115612ea657612ea5612697565b5b612eb287828801612e0d565b91505092959194509250565b60008060408385031215612ed557612ed4612692565b5b6000612ee38582860161282a565b9250506020612ef4858286016128df565b9150509250929050565b60008060408385031215612f1557612f14612692565b5b6000612f23858286016128df565b9250506020612f34858286016128df565b9150509250929050565b7f4e487b7100000000000000000000000000000000000000000000000000000000600052602260045260246000fd5b60006002820490506001821680612f8557607f821691505b602082108103612f9857612f97612f3e565b5b50919050565b7f4e6565642074686520657363726f772070726f6365737320746f20737461727460008201527f2100000000000000000000000000000000000000000000000000000000000000602082015250565b6000612ffa602183612762565b915061300582612f9e565b604082019050919050565b6000602082019050818103600083015261302981612fed565b9050919050565b7f4e487b7100000000000000000000000000000000000000000000000000000000600052601160045260246000fd5b600061306a82612809565b91507fffffffffffffffffffffffffffffffffffffffffffffffffffffffffffffffff820361309c5761309b613030565b5b600182019050919050565b60008190508160005260206000209050919050565b60006020601f8301049050919050565b600082821b905092915050565b6000600883026131097fffffffffffffffffffffffffffffffffffffffffffffffffffffffffffffffff826130cc565b61311386836130cc565b95508019841693508086168417925050509392505050565b6000819050919050565b600061315061314b61314684612809565b61312b565b612809565b9050919050565b6000819050919050565b61316a83613135565b61317e61317682613157565b8484546130d9565b825550505050565b600090565b613193613186565b61319e818484613161565b505050565b5b818110156131c2576131b760008261318b565b6001810190506131a4565b5050565b601f821115613207576131d8816130a7565b6131e1846130bc565b810160208510156131f0578190505b6132046131fc856130bc565b8301826131a3565b50505b505050565b600082821c905092915050565b600061322a6000198460080261320c565b1980831691505092915050565b60006132438383613219565b9150826002028217905092915050565b61325c82612757565b67ffffffffffffffff81111561327557613274612af0565b5b61327f8254612f6d565b61328a8282856131c6565b600060209050601f8311600181146132bd57600084156132ab578287015190505b6132b58582613237565b86555061331d565b601f1984166132cb866130a7565b60005b828110156132f3578489015182556001820191506020850194506020810190506132ce565b86831015613310578489015161330c601f891682613219565b8355505b6001600288020188555050505b505050505050565b600061333082612809565b915061333b83612809565b925082820190508082111561335357613352613030565b5b92915050565b600081905092915050565b600061336f82612757565b6133798185613359565b9350613389818560208601612773565b80840191505092915050565b60006133a18285613364565b91506133ad8284613364565b91508190509392505050565b7f4e487b7100000000000000000000000000000000000000000000000000000000600052603260045260246000fd5b600081519050919050565b600082825260208201905092915050565b600061340f826133e8565b61341981856133f3565b9350613429818560208601612773565b6134328161279d565b840191505092915050565b6000608082019050613452600083018761289e565b61345f602083018661289e565b61346c6040830185612934565b818103606083015261347e8184613404565b905095945050505050565b600081519050613498816126c8565b92915050565b6000602082840312156134b4576134b3612692565b5b60006134c284828501613489565b9150509291505056fea26469706673582212203906399e6033c570618209496c0a93b5257baa256035293af99b8e31f50d65fc64736f6c63430008110033",
  "linkReferences": {},
  "deployedLinkReferences": {}
}