{
  "_format": "hh-sol-artifact-1",
  "contractName": "ProductNFT",
  "sourceName": "contracts/ProductNFT.sol",
  "abi": [
    {
      "inputs": [],
      "stateMutability": "nonpayable",
      "type": "constructor"
    },
    {
      "inputs": [],
      "name": "ApprovalCallerNotOwnerNorApproved",
      "type": "error"
    },
    {
      "inputs": [],
      "name": "ApprovalQueryForNonexistentToken",
      "type": "error"
    },
    {
      "inputs": [],
      "name": "BalanceQueryForZeroAddress",
      "type": "error"
    },
    {
      "inputs": [],
      "name": "MintERC2309QuantityExceedsLimit",
      "type": "error"
    },
    {
      "inputs": [],
      "name": "MintToZeroAddress",
      "type": "error"
    },
    {
      "inputs": [],
      "name": "MintZeroQuantity",
      "type": "error"
    },
    {
      "inputs": [],
      "name": "OwnerQueryForNonexistentToken",
      "type": "error"
    },
    {
      "inputs": [],
      "name": "OwnershipNotInitializedForExtraData",
      "type": "error"
    },
    {
      "inputs": [],
      "name": "TransferCallerNotOwnerNorApproved",
      "type": "error"
    },
    {
      "inputs": [],
      "name": "TransferFromIncorrectOwner",
      "type": "error"
    },
    {
      "inputs": [],
      "name": "TransferToNonERC721ReceiverImplementer",
      "type": "error"
    },
    {
      "inputs": [],
      "name": "TransferToZeroAddress",
      "type": "error"
    },
    {
      "inputs": [],
      "name": "URIQueryForNonexistentToken",
      "type": "error"
    },
    {
      "anonymous": false,
      "inputs": [
        {
          "indexed": true,
          "internalType": "address",
          "name": "owner",
          "type": "address"
        },
        {
          "indexed": true,
          "internalType": "address",
          "name": "approved",
          "type": "address"
        },
        {
          "indexed": true,
          "internalType": "uint256",
          "name": "tokenId",
          "type": "uint256"
        }
      ],
      "name": "Approval",
      "type": "event"
    },
    {
      "anonymous": false,
      "inputs": [
        {
          "indexed": true,
          "internalType": "address",
          "name": "owner",
          "type": "address"
        },
        {
          "indexed": true,
          "internalType": "address",
          "name": "operator",
          "type": "address"
        },
        {
          "indexed": false,
          "internalType": "bool",
          "name": "approved",
          "type": "bool"
        }
      ],
      "name": "ApprovalForAll",
      "type": "event"
    },
    {
      "anonymous": false,
      "inputs": [
        {
          "indexed": true,
          "internalType": "uint256",
          "name": "fromTokenId",
          "type": "uint256"
        },
        {
          "indexed": false,
          "internalType": "uint256",
          "name": "toTokenId",
          "type": "uint256"
        },
        {
          "indexed": true,
          "internalType": "address",
          "name": "from",
          "type": "address"
        },
        {
          "indexed": true,
          "internalType": "address",
          "name": "to",
          "type": "address"
        }
      ],
      "name": "ConsecutiveTransfer",
      "type": "event"
    },
    {
      "anonymous": false,
      "inputs": [
        {
          "indexed": true,
          "internalType": "address",
          "name": "from",
          "type": "address"
        },
        {
          "indexed": true,
          "internalType": "address",
          "name": "to",
          "type": "address"
        },
        {
          "indexed": true,
          "internalType": "uint256",
          "name": "tokenId",
          "type": "uint256"
        }
      ],
      "name": "Transfer",
      "type": "event"
    },
    {
      "inputs": [
        {
          "internalType": "address",
          "name": "to",
          "type": "address"
        },
        {
          "internalType": "uint256",
          "name": "tokenId",
          "type": "uint256"
        }
      ],
      "name": "approve",
      "outputs": [],
      "stateMutability": "payable",
      "type": "function"
    },
    {
      "inputs": [
        {
          "internalType": "address",
          "name": "owner",
          "type": "address"
        }
      ],
      "name": "balanceOf",
      "outputs": [
        {
          "internalType": "uint256",
          "name": "",
          "type": "uint256"
        }
      ],
      "stateMutability": "view",
      "type": "function"
    },
    {
      "inputs": [
        {
          "internalType": "uint256",
          "name": "",
          "type": "uint256"
        },
        {
          "internalType": "uint256",
          "name": "",
          "type": "uint256"
        }
      ],
      "name": "batchIdToBid",
      "outputs": [
        {
          "internalType": "address",
          "name": "bidder",
          "type": "address"
        },
        {
          "internalType": "uint256",
          "name": "bidPrice",
          "type": "uint256"
        },
        {
          "internalType": "bool",
          "name": "isWinner",
          "type": "bool"
        }
      ],
      "stateMutability": "view",
      "type": "function"
    },
    {
      "inputs": [
        {
          "internalType": "uint256",
          "name": "quantity",
          "type": "uint256"
        },
        {
          "internalType": "string",
          "name": "name",
          "type": "string"
        },
        {
          "internalType": "uint256",
          "name": "batchUid",
          "type": "uint256"
        }
      ],
      "name": "batchMint",
      "outputs": [],
      "stateMutability": "payable",
      "type": "function"
    },
    {
      "inputs": [
        {
          "internalType": "uint256",
          "name": "batchId",
          "type": "uint256"
        }
      ],
      "name": "checkAuthentication",
      "outputs": [
        {
          "components": [
            {
              "internalType": "string",
              "name": "name",
              "type": "string"
            },
            {
              "internalType": "uint256",
              "name": "quantity",
              "type": "uint256"
            },
            {
              "internalType": "uint256",
              "name": "startTokenId",
              "type": "uint256"
            },
            {
              "internalType": "uint256",
              "name": "endTokenId",
              "type": "uint256"
            },
            {
              "internalType": "bool",
              "name": "verification",
              "type": "bool"
            },
            {
              "internalType": "address",
              "name": "owner",
              "type": "address"
            },
            {
              "internalType": "uint256",
              "name": "currentPrice",
              "type": "uint256"
            }
          ],
          "internalType": "struct ProductNFT.Batch",
          "name": "",
          "type": "tuple"
        }
      ],
      "stateMutability": "view",
      "type": "function"
    },
    {
      "inputs": [
        {
          "internalType": "uint256",
          "name": "batchId",
          "type": "uint256"
        },
        {
          "internalType": "address",
          "name": "winnerAddress",
          "type": "address"
        }
      ],
      "name": "escrowBatch",
      "outputs": [],
      "stateMutability": "nonpayable",
      "type": "function"
    },
    {
      "inputs": [
        {
          "internalType": "uint256",
          "name": "batchId",
          "type": "uint256"
        }
      ],
      "name": "escrowBid",
      "outputs": [],
      "stateMutability": "payable",
      "type": "function"
    },
    {
      "inputs": [
        {
          "internalType": "uint256",
          "name": "batchId",
          "type": "uint256"
        }
      ],
      "name": "escrowEnd",
      "outputs": [],
      "stateMutability": "nonpayable",
      "type": "function"
    },
    {
      "inputs": [
        {
          "internalType": "uint256",
          "name": "tokenId",
          "type": "uint256"
        }
      ],
      "name": "getApproved",
      "outputs": [
        {
          "internalType": "address",
          "name": "",
          "type": "address"
        }
      ],
      "stateMutability": "view",
      "type": "function"
    },
    {
      "inputs": [
        {
          "internalType": "uint256",
          "name": "batchId",
          "type": "uint256"
        }
      ],
      "name": "getBatchData",
      "outputs": [
        {
          "components": [
            {
              "internalType": "string",
              "name": "name",
              "type": "string"
            },
            {
              "internalType": "uint256",
              "name": "quantity",
              "type": "uint256"
            },
            {
              "internalType": "uint256",
              "name": "startTokenId",
              "type": "uint256"
            },
            {
              "internalType": "uint256",
              "name": "endTokenId",
              "type": "uint256"
            },
            {
              "internalType": "bool",
              "name": "verification",
              "type": "bool"
            },
            {
              "internalType": "address",
              "name": "owner",
              "type": "address"
            },
            {
              "internalType": "uint256",
              "name": "currentPrice",
              "type": "uint256"
            }
          ],
          "internalType": "struct ProductNFT.Batch",
          "name": "",
          "type": "tuple"
        }
      ],
      "stateMutability": "view",
      "type": "function"
    },
    {
      "inputs": [
        {
          "internalType": "uint256",
          "name": "batchId",
          "type": "uint256"
        }
      ],
      "name": "getOwner",
      "outputs": [
        {
          "internalType": "address",
          "name": "",
          "type": "address"
        }
      ],
      "stateMutability": "view",
      "type": "function"
    },
    {
      "inputs": [
        {
          "internalType": "address",
          "name": "owner",
          "type": "address"
        },
        {
          "internalType": "address",
          "name": "operator",
          "type": "address"
        }
      ],
      "name": "isApprovedForAll",
      "outputs": [
        {
          "internalType": "bool",
          "name": "",
          "type": "bool"
        }
      ],
      "stateMutability": "view",
      "type": "function"
    },
    {
      "inputs": [],
      "name": "name",
      "outputs": [
        {
          "internalType": "string",
          "name": "",
          "type": "string"
        }
      ],
      "stateMutability": "view",
      "type": "function"
    },
    {
      "inputs": [
        {
          "internalType": "uint256",
          "name": "tokenId",
          "type": "uint256"
        }
      ],
      "name": "ownerOf",
      "outputs": [
        {
          "internalType": "address",
          "name": "",
          "type": "address"
        }
      ],
      "stateMutability": "view",
      "type": "function"
    },
    {
      "inputs": [
        {
          "internalType": "uint256",
          "name": "batchId",
          "type": "uint256"
        }
      ],
      "name": "regulatorApproval",
      "outputs": [],
      "stateMutability": "nonpayable",
      "type": "function"
    },
    {
      "inputs": [
        {
          "internalType": "address",
          "name": "from",
          "type": "address"
        },
        {
          "internalType": "address",
          "name": "to",
          "type": "address"
        },
        {
          "internalType": "uint256",
          "name": "tokenId",
          "type": "uint256"
        }
      ],
      "name": "safeTransferFrom",
      "outputs": [],
      "stateMutability": "payable",
      "type": "function"
    },
    {
      "inputs": [
        {
          "internalType": "address",
          "name": "from",
          "type": "address"
        },
        {
          "internalType": "address",
          "name": "to",
          "type": "address"
        },
        {
          "internalType": "uint256",
          "name": "tokenId",
          "type": "uint256"
        },
        {
          "internalType": "bytes",
          "name": "_data",
          "type": "bytes"
        }
      ],
      "name": "safeTransferFrom",
      "outputs": [],
      "stateMutability": "payable",
      "type": "function"
    },
    {
      "inputs": [
        {
          "internalType": "address",
          "name": "operator",
          "type": "address"
        },
        {
          "internalType": "bool",
          "name": "approved",
          "type": "bool"
        }
      ],
      "name": "setApprovalForAll",
      "outputs": [],
      "stateMutability": "nonpayable",
      "type": "function"
    },
    {
      "inputs": [
        {
          "internalType": "bytes4",
          "name": "interfaceId",
          "type": "bytes4"
        }
      ],
      "name": "supportsInterface",
      "outputs": [
        {
          "internalType": "bool",
          "name": "",
          "type": "bool"
        }
      ],
      "stateMutability": "view",
      "type": "function"
    },
    {
      "inputs": [],
      "name": "symbol",
      "outputs": [
        {
          "internalType": "string",
          "name": "",
          "type": "string"
        }
      ],
      "stateMutability": "view",
      "type": "function"
    },
    {
      "inputs": [
        {
          "internalType": "uint256",
          "name": "tokenId",
          "type": "uint256"
        }
      ],
      "name": "tokenURI",
      "outputs": [
        {
          "internalType": "string",
          "name": "",
          "type": "string"
        }
      ],
      "stateMutability": "view",
      "type": "function"
    },
    {
      "inputs": [],
      "name": "totalSupply",
      "outputs": [
        {
          "internalType": "uint256",
          "name": "",
          "type": "uint256"
        }
      ],
      "stateMutability": "view",
      "type": "function"
    },
    {
      "inputs": [
        {
          "internalType": "address",
          "name": "from",
          "type": "address"
        },
        {
          "internalType": "address",
          "name": "to",
          "type": "address"
        },
        {
          "internalType": "uint256",
          "name": "tokenId",
          "type": "uint256"
        }
      ],
      "name": "transferFrom",
      "outputs": [],
      "stateMutability": "payable",
      "type": "function"
    }
  ],
  "bytecode": "0x60806040523480156200001157600080fd5b506040518060400160405280600a81526020017f5468726565436861696e000000000000000000000000000000000000000000008152506040518060400160405280600381526020017f544843000000000000000000000000000000000000000000000000000000000081525081600290816200008f91906200033f565b508060039081620000a191906200033f565b50620000b2620000c060201b60201c565b600081905550505062000426565b600090565b600081519050919050565b7f4e487b7100000000000000000000000000000000000000000000000000000000600052604160045260246000fd5b7f4e487b7100000000000000000000000000000000000000000000000000000000600052602260045260246000fd5b600060028204905060018216806200014757607f821691505b6020821081036200015d576200015c620000ff565b5b50919050565b60008190508160005260206000209050919050565b60006020601f8301049050919050565b600082821b905092915050565b600060088302620001c77fffffffffffffffffffffffffffffffffffffffffffffffffffffffffffffffff8262000188565b620001d3868362000188565b95508019841693508086168417925050509392505050565b6000819050919050565b6000819050919050565b6000620002206200021a6200021484620001eb565b620001f5565b620001eb565b9050919050565b6000819050919050565b6200023c83620001ff565b620002546200024b8262000227565b84845462000195565b825550505050565b600090565b6200026b6200025c565b6200027881848462000231565b505050565b5b81811015620002a0576200029460008262000261565b6001810190506200027e565b5050565b601f821115620002ef57620002b98162000163565b620002c48462000178565b81016020851015620002d4578190505b620002ec620002e38562000178565b8301826200027d565b50505b505050565b600082821c905092915050565b60006200031460001984600802620002f4565b1980831691505092915050565b60006200032f838362000301565b9150826002028217905092915050565b6200034a82620000c5565b67ffffffffffffffff811115620003665762000365620000d0565b5b6200037282546200012e565b6200037f828285620002a4565b600060209050601f831160018114620003b75760008415620003a2578287015190505b620003ae858262000321565b8655506200041e565b601f198416620003c78662000163565b60005b82811015620003f157848901518255600182019150602085019450602081019050620003ca565b868310156200041157848901516200040d601f89168262000301565b8355505b6001600288020188555050505b505050505050565b61307580620004366000396000f3fe6080604052600436106101405760003560e01c80636352211e116100b6578063b88d4fde1161006f578063b88d4fde1461045e578063c41a360a1461047a578063c6dfb2ef146104b7578063c87b56dd146104d3578063df5408ef14610510578063e985e9c51461053957610140565b80636352211e1461032857806370a0823114610365578063732da4f2146103a2578063899f4df4146103cb57806395d89b411461040a578063a22cb4651461043557610140565b806323b872dd1161010857806323b872dd1461023157806327124cb71461024d57806332e1408f1461028a57806341d00f23146102b357806342842e0e146102cf5780635a8b050d146102eb57610140565b806301ffc9a71461014557806306fdde0314610182578063081812fc146101ad578063095ea7b3146101ea57806318160ddd14610206575b600080fd5b34801561015157600080fd5b5061016c60048036038101906101679190612268565b610576565b60405161017991906122b0565b60405180910390f35b34801561018e57600080fd5b50610197610608565b6040516101a4919061235b565b60405180910390f35b3480156101b957600080fd5b506101d460048036038101906101cf91906123b3565b61069a565b6040516101e19190612421565b60405180910390f35b61020460048036038101906101ff9190612468565b610719565b005b34801561021257600080fd5b5061021b61085d565b60405161022891906124b7565b60405180910390f35b61024b600480360381019061024691906124d2565b610874565b005b34801561025957600080fd5b50610274600480360381019061026f91906123b3565b610b96565b6040516102819190612638565b60405180910390f35b34801561029657600080fd5b506102b160048036038101906102ac91906123b3565b610cee565b005b6102cd60048036038101906102c8919061278f565b610d20565b005b6102e960048036038101906102e491906124d2565b610e5c565b005b3480156102f757600080fd5b50610312600480360381019061030d91906123b3565b610e7c565b60405161031f9190612638565b60405180910390f35b34801561033457600080fd5b5061034f600480360381019061034a91906123b3565b610fd4565b60405161035c9190612421565b60405180910390f35b34801561037157600080fd5b5061038c600480360381019061038791906127fe565b610fe6565b60405161039991906124b7565b60405180910390f35b3480156103ae57600080fd5b506103c960048036038101906103c491906123b3565b61109e565b005b3480156103d757600080fd5b506103f260048036038101906103ed919061282b565b611390565b6040516104019392919061286b565b60405180910390f35b34801561041657600080fd5b5061041f611404565b60405161042c919061235b565b60405180910390f35b34801561044157600080fd5b5061045c600480360381019061045791906128ce565b611496565b005b610478600480360381019061047391906129af565b6115a1565b005b34801561048657600080fd5b506104a1600480360381019061049c91906123b3565b611614565b6040516104ae9190612421565b60405180910390f35b6104d160048036038101906104cc91906123b3565b611654565b005b3480156104df57600080fd5b506104fa60048036038101906104f591906123b3565b611766565b604051610507919061235b565b60405180910390f35b34801561051c57600080fd5b5061053760048036038101906105329190612a32565b611804565b005b34801561054557600080fd5b50610560600480360381019061055b9190612a72565b611b7d565b60405161056d91906122b0565b60405180910390f35b60006301ffc9a760e01b827bffffffffffffffffffffffffffffffffffffffffffffffffffffffff191614806105d157506380ac58cd60e01b827bffffffffffffffffffffffffffffffffffffffffffffffffffffffff1916145b806106015750635b5e139f60e01b827bffffffffffffffffffffffffffffffffffffffffffffffffffffffff1916145b9050919050565b60606002805461061790612ae1565b80601f016020809104026020016040519081016040528092919081815260200182805461064390612ae1565b80156106905780601f1061066557610100808354040283529160200191610690565b820191906000526020600020905b81548152906001019060200180831161067357829003601f168201915b5050505050905090565b60006106a582611c11565b6106db576040517fcf4700e400000000000000000000000000000000000000000000000000000000815260040160405180910390fd5b6006600083815260200190815260200160002060000160009054906101000a900473ffffffffffffffffffffffffffffffffffffffff169050919050565b600061072482610fd4565b90508073ffffffffffffffffffffffffffffffffffffffff16610745611c70565b73ffffffffffffffffffffffffffffffffffffffff16146107a8576107718161076c611c70565b611b7d565b6107a7576040517fcfb3b94200000000000000000000000000000000000000000000000000000000815260040160405180910390fd5b5b826006600084815260200190815260200160002060000160006101000a81548173ffffffffffffffffffffffffffffffffffffffff021916908373ffffffffffffffffffffffffffffffffffffffff160217905550818373ffffffffffffffffffffffffffffffffffffffff168273ffffffffffffffffffffffffffffffffffffffff167f8c5be1e5ebec7d5bd14f71427d1e84f3dd0314c0f7b2291e5b200ac8c7c3b92560405160405180910390a4505050565b6000610867611c78565b6001546000540303905090565b600061087f82611c7d565b90508373ffffffffffffffffffffffffffffffffffffffff168173ffffffffffffffffffffffffffffffffffffffff16146108e6576040517fa114810000000000000000000000000000000000000000000000000000000000815260040160405180910390fd5b6000806108f284611d49565b915091506109088187610903611c70565b611d70565b6109545761091d86610918611c70565b611b7d565b610953576040517f59c896be00000000000000000000000000000000000000000000000000000000815260040160405180910390fd5b5b600073ffffffffffffffffffffffffffffffffffffffff168573ffffffffffffffffffffffffffffffffffffffff16036109ba576040517fea553b3400000000000000000000000000000000000000000000000000000000815260040160405180910390fd5b6109c78686866001611db4565b80156109d257600082555b600560008773ffffffffffffffffffffffffffffffffffffffff1673ffffffffffffffffffffffffffffffffffffffff168152602001908152602001600020600081546001900391905081905550600560008673ffffffffffffffffffffffffffffffffffffffff1673ffffffffffffffffffffffffffffffffffffffff1681526020019081526020016000206000815460010191905081905550610aa085610a7c888887611dba565b7c020000000000000000000000000000000000000000000000000000000017611de2565b600460008681526020019081526020016000208190555060007c0200000000000000000000000000000000000000000000000000000000841603610b265760006001850190506000600460008381526020019081526020016000205403610b24576000548114610b23578360046000838152602001908152602001600020819055505b5b505b838573ffffffffffffffffffffffffffffffffffffffff168773ffffffffffffffffffffffffffffffffffffffff167fddf252ad1be2c89b69c2b068fc378daa952ba7f163c4a11628f55a4df523b3ef60405160405180910390a4610b8e8686866001611e0d565b505050505050565b610b9e6121a7565b600860008381526020019081526020016000206040518060e0016040529081600082018054610bcc90612ae1565b80601f0160208091040260200160405190810160405280929190818152602001828054610bf890612ae1565b8015610c455780601f10610c1a57610100808354040283529160200191610c45565b820191906000526020600020905b815481529060010190602001808311610c2857829003601f168201915b505050505081526020016001820154815260200160028201548152602001600382015481526020016004820160009054906101000a900460ff161515151581526020016004820160019054906101000a900473ffffffffffffffffffffffffffffffffffffffff1673ffffffffffffffffffffffffffffffffffffffff1673ffffffffffffffffffffffffffffffffffffffff1681526020016005820154815250509050919050565b60016008600083815260200190815260200160002060040160006101000a81548160ff02191690831515021790555050565b6000610d2a611e13565b905082600860008481526020019081526020016000206000019081610d4f9190612cbe565b508360086000848152602001908152602001600020600101819055508060086000848152602001908152602001600020600201819055508381610d929190612dbf565b600860008481526020019081526020016000206003018190555060006008600084815260200190815260200160002060040160006101000a81548160ff021916908315150217905550336008600084815260200190815260200160002060040160016101000a81548173ffffffffffffffffffffffffffffffffffffffff021916908373ffffffffffffffffffffffffffffffffffffffff16021790555060006008600084815260200190815260200160002060050181905550610e563385611e1c565b50505050565b610e77838383604051806020016040528060008152506115a1565b505050565b610e846121a7565b600860008381526020019081526020016000206040518060e0016040529081600082018054610eb290612ae1565b80601f0160208091040260200160405190810160405280929190818152602001828054610ede90612ae1565b8015610f2b5780601f10610f0057610100808354040283529160200191610f2b565b820191906000526020600020905b815481529060010190602001808311610f0e57829003601f168201915b505050505081526020016001820154815260200160028201548152602001600382015481526020016004820160009054906101000a900460ff161515151581526020016004820160019054906101000a900473ffffffffffffffffffffffffffffffffffffffff1673ffffffffffffffffffffffffffffffffffffffff1673ffffffffffffffffffffffffffffffffffffffff1681526020016005820154815250509050919050565b6000610fdf82611c7d565b9050919050565b60008073ffffffffffffffffffffffffffffffffffffffff168273ffffffffffffffffffffffffffffffffffffffff160361104d576040517f8f4eb60400000000000000000000000000000000000000000000000000000000815260040160405180910390fd5b67ffffffffffffffff600560008473ffffffffffffffffffffffffffffffffffffffff1673ffffffffffffffffffffffffffffffffffffffff16815260200190815260200160002054169050919050565b6000600860008381526020019081526020016000206040518060e00160405290816000820180546110ce90612ae1565b80601f01602080910402602001604051908101604052809291908181526020018280546110fa90612ae1565b80156111475780601f1061111c57610100808354040283529160200191611147565b820191906000526020600020905b81548152906001019060200180831161112a57829003601f168201915b505050505081526020016001820154815260200160028201548152602001600382015481526020016004820160009054906101000a900460ff161515151581526020016004820160019054906101000a900473ffffffffffffffffffffffffffffffffffffffff1673ffffffffffffffffffffffffffffffffffffffff1673ffffffffffffffffffffffffffffffffffffffff1681526020016005820154815250509050600b600083815260200190815260200160002060009054906101000a900473ffffffffffffffffffffffffffffffffffffffff1673ffffffffffffffffffffffffffffffffffffffff166108fc8260c001519081150290604051600060405180830381858888f19350505050158015611268573d6000803e3d6000fd5b50600a600083815260200190815260200160002060009054906101000a900473ffffffffffffffffffffffffffffffffffffffff166008600084815260200190815260200160002060040160016101000a81548173ffffffffffffffffffffffffffffffffffffffff021916908373ffffffffffffffffffffffffffffffffffffffff1602179055506000816040015190505b816060015181101561138b57611378600b600085815260200190815260200160002060009054906101000a900473ffffffffffffffffffffffffffffffffffffffff16600a600086815260200190815260200160002060009054906101000a900473ffffffffffffffffffffffffffffffffffffffff1683610e5c565b808061138390612df3565b9150506112fb565b505050565b600c60205281600052604060002081815481106113ac57600080fd5b9060005260206000209060030201600091509150508060000160009054906101000a900473ffffffffffffffffffffffffffffffffffffffff16908060010154908060020160009054906101000a900460ff16905083565b60606003805461141390612ae1565b80601f016020809104026020016040519081016040528092919081815260200182805461143f90612ae1565b801561148c5780601f106114615761010080835404028352916020019161148c565b820191906000526020600020905b81548152906001019060200180831161146f57829003601f168201915b5050505050905090565b80600760006114a3611c70565b73ffffffffffffffffffffffffffffffffffffffff1673ffffffffffffffffffffffffffffffffffffffff16815260200190815260200160002060008473ffffffffffffffffffffffffffffffffffffffff1673ffffffffffffffffffffffffffffffffffffffff16815260200190815260200160002060006101000a81548160ff0219169083151502179055508173ffffffffffffffffffffffffffffffffffffffff16611550611c70565b73ffffffffffffffffffffffffffffffffffffffff167f17307eab39ab6107e8899845ad3d59bd9653f200f220920489ca2b5937696c318360405161159591906122b0565b60405180910390a35050565b6115ac848484610874565b60008373ffffffffffffffffffffffffffffffffffffffff163b1461160e576115d784848484611fd7565b61160d576040517fd1a57ed600000000000000000000000000000000000000000000000000000000815260040160405180910390fd5b5b50505050565b60006008600083815260200190815260200160002060040160019054906101000a900473ffffffffffffffffffffffffffffffffffffffff169050919050565b600c600082815260200190815260200160002060405180606001604052803373ffffffffffffffffffffffffffffffffffffffff16815260200134815260200160001515815250908060018154018082558091505060019003906000526020600020906003020160009091909190915060008201518160000160006101000a81548173ffffffffffffffffffffffffffffffffffffffff021916908373ffffffffffffffffffffffffffffffffffffffff1602179055506020820151816001015560408201518160020160006101000a81548160ff021916908315150217905550505060016009600083815260200190815260200160002060006101000a81548160ff02191690831515021790555050565b606061177182611c11565b6117a7576040517fa14c4b5000000000000000000000000000000000000000000000000000000000815260040160405180910390fd5b60006117b1612127565b905060008151036117d157604051806020016040528060008152506117fc565b806117db8461213e565b6040516020016117ec929190612e77565b6040516020818303038152906040525b915050919050565b6009600083815260200190815260200160002060009054906101000a900460ff16611864576040517f08c379a000000000000000000000000000000000000000000000000000000000815260040161185b90612f0d565b60405180910390fd5b6008600083815260200190815260200160002060040160019054906101000a900473ffffffffffffffffffffffffffffffffffffffff16600b600084815260200190815260200160002060006101000a81548173ffffffffffffffffffffffffffffffffffffffff021916908373ffffffffffffffffffffffffffffffffffffffff160217905550306008600084815260200190815260200160002060040160016101000a81548173ffffffffffffffffffffffffffffffffffffffff021916908373ffffffffffffffffffffffffffffffffffffffff16021790555060005b600c600084815260200190815260200160002080549050811015611b78578173ffffffffffffffffffffffffffffffffffffffff16600c6000858152602001908152602001600020828154811061199e5761199d612f2d565b5b906000526020600020906003020160000160009054906101000a900473ffffffffffffffffffffffffffffffffffffffff1673ffffffffffffffffffffffffffffffffffffffff1603611a91576001600c60008581526020019081526020016000208281548110611a1257611a11612f2d565b5b906000526020600020906003020160020160006101000a81548160ff02191690831515021790555081600a600085815260200190815260200160002060006101000a81548173ffffffffffffffffffffffffffffffffffffffff021916908373ffffffffffffffffffffffffffffffffffffffff160217905550611b65565b600c60008481526020019081526020016000208181548110611ab657611ab5612f2d565b5b906000526020600020906003020160000160009054906101000a900473ffffffffffffffffffffffffffffffffffffffff1673ffffffffffffffffffffffffffffffffffffffff166108fc600c60008681526020019081526020016000208381548110611b2657611b25612f2d565b5b9060005260206000209060030201600101549081150290604051600060405180830381858888f19350505050158015611b63573d6000803e3d6000fd5b505b8080611b7090612df3565b915050611944565b505050565b6000600760008473ffffffffffffffffffffffffffffffffffffffff1673ffffffffffffffffffffffffffffffffffffffff16815260200190815260200160002060008373ffffffffffffffffffffffffffffffffffffffff1673ffffffffffffffffffffffffffffffffffffffff16815260200190815260200160002060009054906101000a900460ff16905092915050565b600081611c1c611c78565b11158015611c2b575060005482105b8015611c69575060007c0100000000000000000000000000000000000000000000000000000000600460008581526020019081526020016000205416145b9050919050565b600033905090565b600090565b60008082905080611c8c611c78565b11611d1257600054811015611d115760006004600083815260200190815260200160002054905060007c0100000000000000000000000000000000000000000000000000000000821603611d0f575b60008103611d05576004600083600190039350838152602001908152602001600020549050611cdb565b8092505050611d44565b505b5b6040517fdf2d9b4200000000000000000000000000000000000000000000000000000000815260040160405180910390fd5b919050565b60008060006006600085815260200190815260200160002090508092508254915050915091565b600073ffffffffffffffffffffffffffffffffffffffff8316925073ffffffffffffffffffffffffffffffffffffffff821691508382148383141790509392505050565b50505050565b60008060e883901c905060e8611dd186868461218e565b62ffffff16901b9150509392505050565b600073ffffffffffffffffffffffffffffffffffffffff83169250814260a01b178317905092915050565b50505050565b60008054905090565b60008054905060008203611e5c576040517fb562e8dd00000000000000000000000000000000000000000000000000000000815260040160405180910390fd5b611e696000848385611db4565b600160406001901b178202600560008573ffffffffffffffffffffffffffffffffffffffff1673ffffffffffffffffffffffffffffffffffffffff16815260200190815260200160002060008282540192505081905550611ee083611ed16000866000611dba565b611eda85612197565b17611de2565b6004600083815260200190815260200160002081905550600080838301905073ffffffffffffffffffffffffffffffffffffffff85169150828260007fddf252ad1be2c89b69c2b068fc378daa952ba7f163c4a11628f55a4df523b3ef600080a4600183015b818114611f8157808360007fddf252ad1be2c89b69c2b068fc378daa952ba7f163c4a11628f55a4df523b3ef600080a4600181019050611f46565b5060008203611fbc576040517f2e07630000000000000000000000000000000000000000000000000000000000815260040160405180910390fd5b806000819055505050611fd26000848385611e0d565b505050565b60008373ffffffffffffffffffffffffffffffffffffffff1663150b7a02611ffd611c70565b8786866040518563ffffffff1660e01b815260040161201f9493929190612fb1565b6020604051808303816000875af192505050801561205b57506040513d601f19601f820116820180604052508101906120589190613012565b60015b6120d4573d806000811461208b576040519150601f19603f3d011682016040523d82523d6000602084013e612090565b606091505b5060008151036120cc576040517fd1a57ed600000000000000000000000000000000000000000000000000000000815260040160405180910390fd5b805181602001fd5b63150b7a0260e01b7bffffffffffffffffffffffffffffffffffffffffffffffffffffffff1916817bffffffffffffffffffffffffffffffffffffffffffffffffffffffff191614915050949350505050565b606060405180602001604052806000815250905090565b606060a060405101806040526020810391506000825281835b60011561217957600184039350600a81066030018453600a8104905080612157575b50828103602084039350808452505050919050565b60009392505050565b60006001821460e11b9050919050565b6040518060e0016040528060608152602001600081526020016000815260200160008152602001600015158152602001600073ffffffffffffffffffffffffffffffffffffffff168152602001600081525090565b6000604051905090565b600080fd5b600080fd5b60007fffffffff0000000000000000000000000000000000000000000000000000000082169050919050565b61224581612210565b811461225057600080fd5b50565b6000813590506122628161223c565b92915050565b60006020828403121561227e5761227d612206565b5b600061228c84828501612253565b91505092915050565b60008115159050919050565b6122aa81612295565b82525050565b60006020820190506122c560008301846122a1565b92915050565b600081519050919050565b600082825260208201905092915050565b60005b838110156123055780820151818401526020810190506122ea565b60008484015250505050565b6000601f19601f8301169050919050565b600061232d826122cb565b61233781856122d6565b93506123478185602086016122e7565b61235081612311565b840191505092915050565b600060208201905081810360008301526123758184612322565b905092915050565b6000819050919050565b6123908161237d565b811461239b57600080fd5b50565b6000813590506123ad81612387565b92915050565b6000602082840312156123c9576123c8612206565b5b60006123d78482850161239e565b91505092915050565b600073ffffffffffffffffffffffffffffffffffffffff82169050919050565b600061240b826123e0565b9050919050565b61241b81612400565b82525050565b60006020820190506124366000830184612412565b92915050565b61244581612400565b811461245057600080fd5b50565b6000813590506124628161243c565b92915050565b6000806040838503121561247f5761247e612206565b5b600061248d85828601612453565b925050602061249e8582860161239e565b9150509250929050565b6124b18161237d565b82525050565b60006020820190506124cc60008301846124a8565b92915050565b6000806000606084860312156124eb576124ea612206565b5b60006124f986828701612453565b935050602061250a86828701612453565b925050604061251b8682870161239e565b9150509250925092565b600082825260208201905092915050565b6000612541826122cb565b61254b8185612525565b935061255b8185602086016122e7565b61256481612311565b840191505092915050565b6125788161237d565b82525050565b61258781612295565b82525050565b61259681612400565b82525050565b600060e08301600083015184820360008601526125b98282612536565b91505060208301516125ce602086018261256f565b5060408301516125e1604086018261256f565b5060608301516125f4606086018261256f565b506080830151612607608086018261257e565b5060a083015161261a60a086018261258d565b5060c083015161262d60c086018261256f565b508091505092915050565b60006020820190508181036000830152612652818461259c565b905092915050565b600080fd5b600080fd5b7f4e487b7100000000000000000000000000000000000000000000000000000000600052604160045260246000fd5b61269c82612311565b810181811067ffffffffffffffff821117156126bb576126ba612664565b5b80604052505050565b60006126ce6121fc565b90506126da8282612693565b919050565b600067ffffffffffffffff8211156126fa576126f9612664565b5b61270382612311565b9050602081019050919050565b82818337600083830152505050565b600061273261272d846126df565b6126c4565b90508281526020810184848401111561274e5761274d61265f565b5b612759848285612710565b509392505050565b600082601f8301126127765761277561265a565b5b813561278684826020860161271f565b91505092915050565b6000806000606084860312156127a8576127a7612206565b5b60006127b68682870161239e565b935050602084013567ffffffffffffffff8111156127d7576127d661220b565b5b6127e386828701612761565b92505060406127f48682870161239e565b9150509250925092565b60006020828403121561281457612813612206565b5b600061282284828501612453565b91505092915050565b6000806040838503121561284257612841612206565b5b60006128508582860161239e565b92505060206128618582860161239e565b9150509250929050565b60006060820190506128806000830186612412565b61288d60208301856124a8565b61289a60408301846122a1565b949350505050565b6128ab81612295565b81146128b657600080fd5b50565b6000813590506128c8816128a2565b92915050565b600080604083850312156128e5576128e4612206565b5b60006128f385828601612453565b9250506020612904858286016128b9565b9150509250929050565b600067ffffffffffffffff82111561292957612928612664565b5b61293282612311565b9050602081019050919050565b600061295261294d8461290e565b6126c4565b90508281526020810184848401111561296e5761296d61265f565b5b612979848285612710565b509392505050565b600082601f8301126129965761299561265a565b5b81356129a684826020860161293f565b91505092915050565b600080600080608085870312156129c9576129c8612206565b5b60006129d787828801612453565b94505060206129e887828801612453565b93505060406129f98782880161239e565b925050606085013567ffffffffffffffff811115612a1a57612a1961220b565b5b612a2687828801612981565b91505092959194509250565b60008060408385031215612a4957612a48612206565b5b6000612a578582860161239e565b9250506020612a6885828601612453565b9150509250929050565b60008060408385031215612a8957612a88612206565b5b6000612a9785828601612453565b9250506020612aa885828601612453565b9150509250929050565b7f4e487b7100000000000000000000000000000000000000000000000000000000600052602260045260246000fd5b60006002820490506001821680612af957607f821691505b602082108103612b0c57612b0b612ab2565b5b50919050565b60008190508160005260206000209050919050565b60006020601f8301049050919050565b600082821b905092915050565b600060088302612b747fffffffffffffffffffffffffffffffffffffffffffffffffffffffffffffffff82612b37565b612b7e8683612b37565b95508019841693508086168417925050509392505050565b6000819050919050565b6000612bbb612bb6612bb18461237d565b612b96565b61237d565b9050919050565b6000819050919050565b612bd583612ba0565b612be9612be182612bc2565b848454612b44565b825550505050565b600090565b612bfe612bf1565b612c09818484612bcc565b505050565b5b81811015612c2d57612c22600082612bf6565b600181019050612c0f565b5050565b601f821115612c7257612c4381612b12565b612c4c84612b27565b81016020851015612c5b578190505b612c6f612c6785612b27565b830182612c0e565b50505b505050565b600082821c905092915050565b6000612c9560001984600802612c77565b1980831691505092915050565b6000612cae8383612c84565b9150826002028217905092915050565b612cc7826122cb565b67ffffffffffffffff811115612ce057612cdf612664565b5b612cea8254612ae1565b612cf5828285612c31565b600060209050601f831160018114612d285760008415612d16578287015190505b612d208582612ca2565b865550612d88565b601f198416612d3686612b12565b60005b82811015612d5e57848901518255600182019150602085019450602081019050612d39565b86831015612d7b5784890151612d77601f891682612c84565b8355505b6001600288020188555050505b505050505050565b7f4e487b7100000000000000000000000000000000000000000000000000000000600052601160045260246000fd5b6000612dca8261237d565b9150612dd58361237d565b9250828201905080821115612ded57612dec612d90565b5b92915050565b6000612dfe8261237d565b91507fffffffffffffffffffffffffffffffffffffffffffffffffffffffffffffffff8203612e3057612e2f612d90565b5b600182019050919050565b600081905092915050565b6000612e51826122cb565b612e5b8185612e3b565b9350612e6b8185602086016122e7565b80840191505092915050565b6000612e838285612e46565b9150612e8f8284612e46565b91508190509392505050565b7f4e6565642074686520657363726f772070726f6365737320746f20737461727460008201527f2100000000000000000000000000000000000000000000000000000000000000602082015250565b6000612ef76021836122d6565b9150612f0282612e9b565b604082019050919050565b60006020820190508181036000830152612f2681612eea565b9050919050565b7f4e487b7100000000000000000000000000000000000000000000000000000000600052603260045260246000fd5b600081519050919050565b600082825260208201905092915050565b6000612f8382612f5c565b612f8d8185612f67565b9350612f9d8185602086016122e7565b612fa681612311565b840191505092915050565b6000608082019050612fc66000830187612412565b612fd36020830186612412565b612fe060408301856124a8565b8181036060830152612ff28184612f78565b905095945050505050565b60008151905061300c8161223c565b92915050565b60006020828403121561302857613027612206565b5b600061303684828501612ffd565b9150509291505056fea2646970667358221220b93c2f81297a7f00b7b92c859a7721f3975fb0cde94759eee40211a4dc12ca5a64736f6c63430008110033",
  "linkReferences": {},
  "deployedLinkReferences": {}
}