{
  "_format": "hh-sol-artifact-1",
  "contractName": "ProductNFT",
  "sourceName": "contracts/ProductNFT.sol",
  "abi": [
    {
      "inputs": [],
      "stateMutability": "nonpayable",
      "type": "constructor"
    },
    {
      "inputs": [],
      "name": "ApprovalCallerNotOwnerNorApproved",
      "type": "error"
    },
    {
      "inputs": [],
      "name": "ApprovalQueryForNonexistentToken",
      "type": "error"
    },
    {
      "inputs": [],
      "name": "BalanceQueryForZeroAddress",
      "type": "error"
    },
    {
      "inputs": [],
      "name": "MintERC2309QuantityExceedsLimit",
      "type": "error"
    },
    {
      "inputs": [],
      "name": "MintToZeroAddress",
      "type": "error"
    },
    {
      "inputs": [],
      "name": "MintZeroQuantity",
      "type": "error"
    },
    {
      "inputs": [],
      "name": "OwnerQueryForNonexistentToken",
      "type": "error"
    },
    {
      "inputs": [],
      "name": "OwnershipNotInitializedForExtraData",
      "type": "error"
    },
    {
      "inputs": [],
      "name": "TransferCallerNotOwnerNorApproved",
      "type": "error"
    },
    {
      "inputs": [],
      "name": "TransferFromIncorrectOwner",
      "type": "error"
    },
    {
      "inputs": [],
      "name": "TransferToNonERC721ReceiverImplementer",
      "type": "error"
    },
    {
      "inputs": [],
      "name": "TransferToZeroAddress",
      "type": "error"
    },
    {
      "inputs": [],
      "name": "URIQueryForNonexistentToken",
      "type": "error"
    },
    {
      "anonymous": false,
      "inputs": [
        {
          "indexed": true,
          "internalType": "address",
          "name": "owner",
          "type": "address"
        },
        {
          "indexed": true,
          "internalType": "address",
          "name": "approved",
          "type": "address"
        },
        {
          "indexed": true,
          "internalType": "uint256",
          "name": "tokenId",
          "type": "uint256"
        }
      ],
      "name": "Approval",
      "type": "event"
    },
    {
      "anonymous": false,
      "inputs": [
        {
          "indexed": true,
          "internalType": "address",
          "name": "owner",
          "type": "address"
        },
        {
          "indexed": true,
          "internalType": "address",
          "name": "operator",
          "type": "address"
        },
        {
          "indexed": false,
          "internalType": "bool",
          "name": "approved",
          "type": "bool"
        }
      ],
      "name": "ApprovalForAll",
      "type": "event"
    },
    {
      "anonymous": false,
      "inputs": [
        {
          "indexed": true,
          "internalType": "uint256",
          "name": "fromTokenId",
          "type": "uint256"
        },
        {
          "indexed": false,
          "internalType": "uint256",
          "name": "toTokenId",
          "type": "uint256"
        },
        {
          "indexed": true,
          "internalType": "address",
          "name": "from",
          "type": "address"
        },
        {
          "indexed": true,
          "internalType": "address",
          "name": "to",
          "type": "address"
        }
      ],
      "name": "ConsecutiveTransfer",
      "type": "event"
    },
    {
      "anonymous": false,
      "inputs": [
        {
          "indexed": true,
          "internalType": "address",
          "name": "from",
          "type": "address"
        },
        {
          "indexed": true,
          "internalType": "address",
          "name": "to",
          "type": "address"
        },
        {
          "indexed": true,
          "internalType": "uint256",
          "name": "tokenId",
          "type": "uint256"
        }
      ],
      "name": "Transfer",
      "type": "event"
    },
    {
      "inputs": [
        {
          "internalType": "address",
          "name": "to",
          "type": "address"
        },
        {
          "internalType": "uint256",
          "name": "tokenId",
          "type": "uint256"
        }
      ],
      "name": "approve",
      "outputs": [],
      "stateMutability": "payable",
      "type": "function"
    },
    {
      "inputs": [
        {
          "internalType": "address",
          "name": "owner",
          "type": "address"
        }
      ],
      "name": "balanceOf",
      "outputs": [
        {
          "internalType": "uint256",
          "name": "",
          "type": "uint256"
        }
      ],
      "stateMutability": "view",
      "type": "function"
    },
    {
      "inputs": [
        {
          "internalType": "uint256",
          "name": "",
          "type": "uint256"
        },
        {
          "internalType": "uint256",
          "name": "",
          "type": "uint256"
        }
      ],
      "name": "batchIdToBid",
      "outputs": [
        {
          "internalType": "address",
          "name": "bidder",
          "type": "address"
        },
        {
          "internalType": "uint256",
          "name": "bidPrice",
          "type": "uint256"
        },
        {
          "internalType": "bool",
          "name": "isWinner",
          "type": "bool"
        }
      ],
      "stateMutability": "view",
      "type": "function"
    },
    {
      "inputs": [
        {
          "internalType": "uint256",
          "name": "quantity",
          "type": "uint256"
        },
        {
          "internalType": "string",
          "name": "name",
          "type": "string"
        },
        {
          "internalType": "uint256",
          "name": "batchUid",
          "type": "uint256"
        }
      ],
      "name": "batchMint",
      "outputs": [],
      "stateMutability": "nonpayable",
      "type": "function"
    },
    {
      "inputs": [
        {
          "internalType": "uint256",
          "name": "batchId",
          "type": "uint256"
        }
      ],
      "name": "checkAuthentication",
      "outputs": [
        {
          "components": [
            {
              "internalType": "string",
              "name": "name",
              "type": "string"
            },
            {
              "internalType": "uint256",
              "name": "quantity",
              "type": "uint256"
            },
            {
              "internalType": "uint256",
              "name": "startTokenId",
              "type": "uint256"
            },
            {
              "internalType": "uint256",
              "name": "endTokenId",
              "type": "uint256"
            },
            {
              "internalType": "bool",
              "name": "verification",
              "type": "bool"
            },
            {
              "internalType": "address",
              "name": "owner",
              "type": "address"
            },
            {
              "internalType": "uint256",
              "name": "currentPrice",
              "type": "uint256"
            }
          ],
          "internalType": "struct ProductNFT.Batch",
          "name": "",
          "type": "tuple"
        }
      ],
      "stateMutability": "view",
      "type": "function"
    },
    {
      "inputs": [
        {
          "internalType": "uint256",
          "name": "batchId",
          "type": "uint256"
        },
        {
          "internalType": "address",
          "name": "winnerAddress",
          "type": "address"
        }
      ],
      "name": "escrowBatch",
      "outputs": [],
      "stateMutability": "nonpayable",
      "type": "function"
    },
    {
      "inputs": [
        {
          "internalType": "uint256",
          "name": "batchId",
          "type": "uint256"
        }
      ],
      "name": "escrowBid",
      "outputs": [],
      "stateMutability": "payable",
      "type": "function"
    },
    {
      "inputs": [
        {
          "internalType": "uint256",
          "name": "batchId",
          "type": "uint256"
        }
      ],
      "name": "escrowEndBuyer",
      "outputs": [],
      "stateMutability": "nonpayable",
      "type": "function"
    },
    {
      "inputs": [
        {
          "internalType": "uint256",
          "name": "batchId",
          "type": "uint256"
        }
      ],
      "name": "escrowEndLogistics",
      "outputs": [],
      "stateMutability": "nonpayable",
      "type": "function"
    },
    {
      "inputs": [
        {
          "internalType": "uint256",
          "name": "tokenId",
          "type": "uint256"
        }
      ],
      "name": "getApproved",
      "outputs": [
        {
          "internalType": "address",
          "name": "",
          "type": "address"
        }
      ],
      "stateMutability": "view",
      "type": "function"
    },
    {
      "inputs": [
        {
          "internalType": "uint256",
          "name": "batchId",
          "type": "uint256"
        }
      ],
      "name": "getBatchData",
      "outputs": [
        {
          "components": [
            {
              "internalType": "string",
              "name": "name",
              "type": "string"
            },
            {
              "internalType": "uint256",
              "name": "quantity",
              "type": "uint256"
            },
            {
              "internalType": "uint256",
              "name": "startTokenId",
              "type": "uint256"
            },
            {
              "internalType": "uint256",
              "name": "endTokenId",
              "type": "uint256"
            },
            {
              "internalType": "bool",
              "name": "verification",
              "type": "bool"
            },
            {
              "internalType": "address",
              "name": "owner",
              "type": "address"
            },
            {
              "internalType": "uint256",
              "name": "currentPrice",
              "type": "uint256"
            }
          ],
          "internalType": "struct ProductNFT.Batch",
          "name": "",
          "type": "tuple"
        }
      ],
      "stateMutability": "view",
      "type": "function"
    },
    {
      "inputs": [
        {
          "internalType": "uint256",
          "name": "batchId",
          "type": "uint256"
        }
      ],
      "name": "getOwner",
      "outputs": [
        {
          "internalType": "address",
          "name": "",
          "type": "address"
        }
      ],
      "stateMutability": "view",
      "type": "function"
    },
    {
      "inputs": [
        {
          "internalType": "address",
          "name": "owner",
          "type": "address"
        },
        {
          "internalType": "address",
          "name": "operator",
          "type": "address"
        }
      ],
      "name": "isApprovedForAll",
      "outputs": [
        {
          "internalType": "bool",
          "name": "",
          "type": "bool"
        }
      ],
      "stateMutability": "view",
      "type": "function"
    },
    {
      "inputs": [],
      "name": "name",
      "outputs": [
        {
          "internalType": "string",
          "name": "",
          "type": "string"
        }
      ],
      "stateMutability": "view",
      "type": "function"
    },
    {
      "inputs": [
        {
          "internalType": "uint256",
          "name": "tokenId",
          "type": "uint256"
        }
      ],
      "name": "ownerOf",
      "outputs": [
        {
          "internalType": "address",
          "name": "",
          "type": "address"
        }
      ],
      "stateMutability": "view",
      "type": "function"
    },
    {
      "inputs": [
        {
          "internalType": "uint256",
          "name": "batchId",
          "type": "uint256"
        }
      ],
      "name": "regulatorApproval",
      "outputs": [],
      "stateMutability": "nonpayable",
      "type": "function"
    },
    {
      "inputs": [
        {
          "internalType": "address",
          "name": "from",
          "type": "address"
        },
        {
          "internalType": "address",
          "name": "to",
          "type": "address"
        },
        {
          "internalType": "uint256",
          "name": "tokenId",
          "type": "uint256"
        }
      ],
      "name": "safeTransferFrom",
      "outputs": [],
      "stateMutability": "payable",
      "type": "function"
    },
    {
      "inputs": [
        {
          "internalType": "address",
          "name": "from",
          "type": "address"
        },
        {
          "internalType": "address",
          "name": "to",
          "type": "address"
        },
        {
          "internalType": "uint256",
          "name": "tokenId",
          "type": "uint256"
        },
        {
          "internalType": "bytes",
          "name": "_data",
          "type": "bytes"
        }
      ],
      "name": "safeTransferFrom",
      "outputs": [],
      "stateMutability": "payable",
      "type": "function"
    },
    {
      "inputs": [
        {
          "internalType": "address",
          "name": "operator",
          "type": "address"
        },
        {
          "internalType": "bool",
          "name": "approved",
          "type": "bool"
        }
      ],
      "name": "setApprovalForAll",
      "outputs": [],
      "stateMutability": "nonpayable",
      "type": "function"
    },
    {
      "inputs": [
        {
          "internalType": "bytes4",
          "name": "interfaceId",
          "type": "bytes4"
        }
      ],
      "name": "supportsInterface",
      "outputs": [
        {
          "internalType": "bool",
          "name": "",
          "type": "bool"
        }
      ],
      "stateMutability": "view",
      "type": "function"
    },
    {
      "inputs": [],
      "name": "symbol",
      "outputs": [
        {
          "internalType": "string",
          "name": "",
          "type": "string"
        }
      ],
      "stateMutability": "view",
      "type": "function"
    },
    {
      "inputs": [
        {
          "internalType": "uint256",
          "name": "tokenId",
          "type": "uint256"
        }
      ],
      "name": "tokenURI",
      "outputs": [
        {
          "internalType": "string",
          "name": "",
          "type": "string"
        }
      ],
      "stateMutability": "view",
      "type": "function"
    },
    {
      "inputs": [],
      "name": "totalSupply",
      "outputs": [
        {
          "internalType": "uint256",
          "name": "",
          "type": "uint256"
        }
      ],
      "stateMutability": "view",
      "type": "function"
    },
    {
      "inputs": [
        {
          "internalType": "address",
          "name": "from",
          "type": "address"
        },
        {
          "internalType": "address",
          "name": "to",
          "type": "address"
        },
        {
          "internalType": "uint256",
          "name": "tokenId",
          "type": "uint256"
        }
      ],
      "name": "transferFrom",
      "outputs": [],
      "stateMutability": "payable",
      "type": "function"
    }
  ],
  "bytecode": "0x60806040523480156200001157600080fd5b506040518060400160405280600a81526020017f5468726565436861696e000000000000000000000000000000000000000000008152506040518060400160405280600381526020017f544843000000000000000000000000000000000000000000000000000000000081525081600290816200008f91906200033f565b508060039081620000a191906200033f565b50620000b2620000c060201b60201c565b600081905550505062000426565b600090565b600081519050919050565b7f4e487b7100000000000000000000000000000000000000000000000000000000600052604160045260246000fd5b7f4e487b7100000000000000000000000000000000000000000000000000000000600052602260045260246000fd5b600060028204905060018216806200014757607f821691505b6020821081036200015d576200015c620000ff565b5b50919050565b60008190508160005260206000209050919050565b60006020601f8301049050919050565b600082821b905092915050565b600060088302620001c77fffffffffffffffffffffffffffffffffffffffffffffffffffffffffffffffff8262000188565b620001d3868362000188565b95508019841693508086168417925050509392505050565b6000819050919050565b6000819050919050565b6000620002206200021a6200021484620001eb565b620001f5565b620001eb565b9050919050565b6000819050919050565b6200023c83620001ff565b620002546200024b8262000227565b84845462000195565b825550505050565b600090565b6200026b6200025c565b6200027881848462000231565b505050565b5b81811015620002a0576200029460008262000261565b6001810190506200027e565b5050565b601f821115620002ef57620002b98162000163565b620002c48462000178565b81016020851015620002d4578190505b620002ec620002e38562000178565b8301826200027d565b50505b505050565b600082821c905092915050565b60006200031460001984600802620002f4565b1980831691505092915050565b60006200032f838362000301565b9150826002028217905092915050565b6200034a82620000c5565b67ffffffffffffffff811115620003665762000365620000d0565b5b6200037282546200012e565b6200037f828285620002a4565b600060209050601f831160018114620003b75760008415620003a2578287015190505b620003ae858262000321565b8655506200041e565b601f198416620003c78662000163565b60005b82811015620003f157848901518255600182019150602085019450602081019050620003ca565b868310156200041157848901516200040d601f89168262000301565b8355505b6001600288020188555050505b505050505050565b61350e80620004366000396000f3fe60806040526004361061014b5760003560e01c80636352211e116100b6578063b88d4fde1161006f578063b88d4fde1461049f578063c41a360a146104bb578063c6dfb2ef146104f8578063c87b56dd14610514578063df5408ef14610551578063e985e9c51461057a5761014b565b80636352211e1461036957806370a08231146103a6578063899f4df4146103e357806395d89b4114610422578063a22cb4651461044d578063a31df957146104765761014b565b806323b872dd1161010857806323b872dd1461026557806327124cb71461028157806332e1408f146102be57806341d00f23146102e757806342842e0e146103105780635a8b050d1461032c5761014b565b806301ffc9a71461015057806306fdde031461018d578063081812fc146101b8578063095ea7b3146101f557806318160ddd146102115780631e9a08651461023c575b600080fd5b34801561015c57600080fd5b5061017760048036038101906101729190612701565b6105b7565b6040516101849190612749565b60405180910390f35b34801561019957600080fd5b506101a2610649565b6040516101af91906127f4565b60405180910390f35b3480156101c457600080fd5b506101df60048036038101906101da919061284c565b6106db565b6040516101ec91906128ba565b60405180910390f35b61020f600480360381019061020a9190612901565b61075a565b005b34801561021d57600080fd5b5061022661089e565b6040516102339190612950565b60405180910390f35b34801561024857600080fd5b50610263600480360381019061025e919061284c565b6108b5565b005b61027f600480360381019061027a919061296b565b610c5a565b005b34801561028d57600080fd5b506102a860048036038101906102a3919061284c565b610f7c565b6040516102b59190612ad1565b60405180910390f35b3480156102ca57600080fd5b506102e560048036038101906102e0919061284c565b6110d4565b005b3480156102f357600080fd5b5061030e60048036038101906103099190612c28565b611106565b005b61032a6004803603810190610325919061296b565b611242565b005b34801561033857600080fd5b50610353600480360381019061034e919061284c565b611262565b6040516103609190612ad1565b60405180910390f35b34801561037557600080fd5b50610390600480360381019061038b919061284c565b6113ba565b60405161039d91906128ba565b60405180910390f35b3480156103b257600080fd5b506103cd60048036038101906103c89190612c97565b6113cc565b6040516103da9190612950565b60405180910390f35b3480156103ef57600080fd5b5061040a60048036038101906104059190612cc4565b611484565b60405161041993929190612d04565b60405180910390f35b34801561042e57600080fd5b506104376114f8565b60405161044491906127f4565b60405180910390f35b34801561045957600080fd5b50610474600480360381019061046f9190612d67565b61158a565b005b34801561048257600080fd5b5061049d6004803603810190610498919061284c565b611695565b005b6104b960048036038101906104b49190612e48565b611a3a565b005b3480156104c757600080fd5b506104e260048036038101906104dd919061284c565b611aad565b6040516104ef91906128ba565b60405180910390f35b610512600480360381019061050d919061284c565b611aed565b005b34801561052057600080fd5b5061053b6004803603810190610536919061284c565b611bff565b60405161054891906127f4565b60405180910390f35b34801561055d57600080fd5b5061057860048036038101906105739190612ecb565b611c9d565b005b34801561058657600080fd5b506105a1600480360381019061059c9190612f0b565b612016565b6040516105ae9190612749565b60405180910390f35b60006301ffc9a760e01b827bffffffffffffffffffffffffffffffffffffffffffffffffffffffff1916148061061257506380ac58cd60e01b827bffffffffffffffffffffffffffffffffffffffffffffffffffffffff1916145b806106425750635b5e139f60e01b827bffffffffffffffffffffffffffffffffffffffffffffffffffffffff1916145b9050919050565b60606002805461065890612f7a565b80601f016020809104026020016040519081016040528092919081815260200182805461068490612f7a565b80156106d15780601f106106a6576101008083540402835291602001916106d1565b820191906000526020600020905b8154815290600101906020018083116106b457829003601f168201915b5050505050905090565b60006106e6826120aa565b61071c576040517fcf4700e400000000000000000000000000000000000000000000000000000000815260040160405180910390fd5b6006600083815260200190815260200160002060000160009054906101000a900473ffffffffffffffffffffffffffffffffffffffff169050919050565b6000610765826113ba565b90508073ffffffffffffffffffffffffffffffffffffffff16610786612109565b73ffffffffffffffffffffffffffffffffffffffff16146107e9576107b2816107ad612109565b612016565b6107e8576040517fcfb3b94200000000000000000000000000000000000000000000000000000000815260040160405180910390fd5b5b826006600084815260200190815260200160002060000160006101000a81548173ffffffffffffffffffffffffffffffffffffffff021916908373ffffffffffffffffffffffffffffffffffffffff160217905550818373ffffffffffffffffffffffffffffffffffffffff168273ffffffffffffffffffffffffffffffffffffffff167f8c5be1e5ebec7d5bd14f71427d1e84f3dd0314c0f7b2291e5b200ac8c7c3b92560405160405180910390a4505050565b60006108a8612111565b6001546000540303905090565b6009600082815260200190815260200160002060009054906101000a900460ff16610915576040517f08c379a000000000000000000000000000000000000000000000000000000000815260040161090c9061301d565b60405180910390fd5b6001600d600083815260200190815260200160002060006101000a81548160ff021916908315150217905550600c600082815260200190815260200160002060009054906101000a900460ff1615610c57576000600860008381526020019081526020016000206040518060e001604052908160008201805461099790612f7a565b80601f01602080910402602001604051908101604052809291908181526020018280546109c390612f7a565b8015610a105780601f106109e557610100808354040283529160200191610a10565b820191906000526020600020905b8154815290600101906020018083116109f357829003601f168201915b505050505081526020016001820154815260200160028201548152602001600382015481526020016004820160009054906101000a900460ff161515151581526020016004820160019054906101000a900473ffffffffffffffffffffffffffffffffffffffff1673ffffffffffffffffffffffffffffffffffffffff1673ffffffffffffffffffffffffffffffffffffffff1681526020016005820154815250509050600b600083815260200190815260200160002060009054906101000a900473ffffffffffffffffffffffffffffffffffffffff1673ffffffffffffffffffffffffffffffffffffffff166108fc8260c001519081150290604051600060405180830381858888f19350505050158015610b31573d6000803e3d6000fd5b50600a600083815260200190815260200160002060009054906101000a900473ffffffffffffffffffffffffffffffffffffffff166008600084815260200190815260200160002060040160016101000a81548173ffffffffffffffffffffffffffffffffffffffff021916908373ffffffffffffffffffffffffffffffffffffffff1602179055506000816040015190505b8160600151811015610c5457610c41600b600085815260200190815260200160002060009054906101000a900473ffffffffffffffffffffffffffffffffffffffff16600a600086815260200190815260200160002060009054906101000a900473ffffffffffffffffffffffffffffffffffffffff1683611242565b8080610c4c9061306c565b915050610bc4565b50505b50565b6000610c6582612116565b90508373ffffffffffffffffffffffffffffffffffffffff168173ffffffffffffffffffffffffffffffffffffffff1614610ccc576040517fa114810000000000000000000000000000000000000000000000000000000000815260040160405180910390fd5b600080610cd8846121e2565b91509150610cee8187610ce9612109565b612209565b610d3a57610d0386610cfe612109565b612016565b610d39576040517f59c896be00000000000000000000000000000000000000000000000000000000815260040160405180910390fd5b5b600073ffffffffffffffffffffffffffffffffffffffff168573ffffffffffffffffffffffffffffffffffffffff1603610da0576040517fea553b3400000000000000000000000000000000000000000000000000000000815260040160405180910390fd5b610dad868686600161224d565b8015610db857600082555b600560008773ffffffffffffffffffffffffffffffffffffffff1673ffffffffffffffffffffffffffffffffffffffff168152602001908152602001600020600081546001900391905081905550600560008673ffffffffffffffffffffffffffffffffffffffff1673ffffffffffffffffffffffffffffffffffffffff1681526020019081526020016000206000815460010191905081905550610e8685610e62888887612253565b7c02000000000000000000000000000000000000000000000000000000001761227b565b600460008681526020019081526020016000208190555060007c0200000000000000000000000000000000000000000000000000000000841603610f0c5760006001850190506000600460008381526020019081526020016000205403610f0a576000548114610f09578360046000838152602001908152602001600020819055505b5b505b838573ffffffffffffffffffffffffffffffffffffffff168773ffffffffffffffffffffffffffffffffffffffff167fddf252ad1be2c89b69c2b068fc378daa952ba7f163c4a11628f55a4df523b3ef60405160405180910390a4610f7486868660016122a6565b505050505050565b610f84612640565b600860008381526020019081526020016000206040518060e0016040529081600082018054610fb290612f7a565b80601f0160208091040260200160405190810160405280929190818152602001828054610fde90612f7a565b801561102b5780601f106110005761010080835404028352916020019161102b565b820191906000526020600020905b81548152906001019060200180831161100e57829003601f168201915b505050505081526020016001820154815260200160028201548152602001600382015481526020016004820160009054906101000a900460ff161515151581526020016004820160019054906101000a900473ffffffffffffffffffffffffffffffffffffffff1673ffffffffffffffffffffffffffffffffffffffff1673ffffffffffffffffffffffffffffffffffffffff1681526020016005820154815250509050919050565b60016008600083815260200190815260200160002060040160006101000a81548160ff02191690831515021790555050565b60006111106122ac565b9050826008600084815260200190815260200160002060000190816111359190613260565b5083600860008481526020019081526020016000206001018190555080600860008481526020019081526020016000206002018190555083816111789190613332565b600860008481526020019081526020016000206003018190555060006008600084815260200190815260200160002060040160006101000a81548160ff021916908315150217905550336008600084815260200190815260200160002060040160016101000a81548173ffffffffffffffffffffffffffffffffffffffff021916908373ffffffffffffffffffffffffffffffffffffffff1602179055506000600860008481526020019081526020016000206005018190555061123c33856122b5565b50505050565b61125d83838360405180602001604052806000815250611a3a565b505050565b61126a612640565b600860008381526020019081526020016000206040518060e001604052908160008201805461129890612f7a565b80601f01602080910402602001604051908101604052809291908181526020018280546112c490612f7a565b80156113115780601f106112e657610100808354040283529160200191611311565b820191906000526020600020905b8154815290600101906020018083116112f457829003601f168201915b505050505081526020016001820154815260200160028201548152602001600382015481526020016004820160009054906101000a900460ff161515151581526020016004820160019054906101000a900473ffffffffffffffffffffffffffffffffffffffff1673ffffffffffffffffffffffffffffffffffffffff1673ffffffffffffffffffffffffffffffffffffffff1681526020016005820154815250509050919050565b60006113c582612116565b9050919050565b60008073ffffffffffffffffffffffffffffffffffffffff168273ffffffffffffffffffffffffffffffffffffffff1603611433576040517f8f4eb60400000000000000000000000000000000000000000000000000000000815260040160405180910390fd5b67ffffffffffffffff600560008473ffffffffffffffffffffffffffffffffffffffff1673ffffffffffffffffffffffffffffffffffffffff16815260200190815260200160002054169050919050565b600e60205281600052604060002081815481106114a057600080fd5b9060005260206000209060030201600091509150508060000160009054906101000a900473ffffffffffffffffffffffffffffffffffffffff16908060010154908060020160009054906101000a900460ff16905083565b60606003805461150790612f7a565b80601f016020809104026020016040519081016040528092919081815260200182805461153390612f7a565b80156115805780601f1061155557610100808354040283529160200191611580565b820191906000526020600020905b81548152906001019060200180831161156357829003601f168201915b5050505050905090565b8060076000611597612109565b73ffffffffffffffffffffffffffffffffffffffff1673ffffffffffffffffffffffffffffffffffffffff16815260200190815260200160002060008473ffffffffffffffffffffffffffffffffffffffff1673ffffffffffffffffffffffffffffffffffffffff16815260200190815260200160002060006101000a81548160ff0219169083151502179055508173ffffffffffffffffffffffffffffffffffffffff16611644612109565b73ffffffffffffffffffffffffffffffffffffffff167f17307eab39ab6107e8899845ad3d59bd9653f200f220920489ca2b5937696c31836040516116899190612749565b60405180910390a35050565b6009600082815260200190815260200160002060009054906101000a900460ff166116f5576040517f08c379a00000000000000000000000000000000000000000000000000000000081526004016116ec9061301d565b60405180910390fd5b6001600c600083815260200190815260200160002060006101000a81548160ff021916908315150217905550600d600082815260200190815260200160002060009054906101000a900460ff1615611a37576000600860008381526020019081526020016000206040518060e001604052908160008201805461177790612f7a565b80601f01602080910402602001604051908101604052809291908181526020018280546117a390612f7a565b80156117f05780601f106117c5576101008083540402835291602001916117f0565b820191906000526020600020905b8154815290600101906020018083116117d357829003601f168201915b505050505081526020016001820154815260200160028201548152602001600382015481526020016004820160009054906101000a900460ff161515151581526020016004820160019054906101000a900473ffffffffffffffffffffffffffffffffffffffff1673ffffffffffffffffffffffffffffffffffffffff1673ffffffffffffffffffffffffffffffffffffffff1681526020016005820154815250509050600b600083815260200190815260200160002060009054906101000a900473ffffffffffffffffffffffffffffffffffffffff1673ffffffffffffffffffffffffffffffffffffffff166108fc8260c001519081150290604051600060405180830381858888f19350505050158015611911573d6000803e3d6000fd5b50600a600083815260200190815260200160002060009054906101000a900473ffffffffffffffffffffffffffffffffffffffff166008600084815260200190815260200160002060040160016101000a81548173ffffffffffffffffffffffffffffffffffffffff021916908373ffffffffffffffffffffffffffffffffffffffff1602179055506000816040015190505b8160600151811015611a3457611a21600b600085815260200190815260200160002060009054906101000a900473ffffffffffffffffffffffffffffffffffffffff16600a600086815260200190815260200160002060009054906101000a900473ffffffffffffffffffffffffffffffffffffffff1683611242565b8080611a2c9061306c565b9150506119a4565b50505b50565b611a45848484610c5a565b60008373ffffffffffffffffffffffffffffffffffffffff163b14611aa757611a7084848484612470565b611aa6576040517fd1a57ed600000000000000000000000000000000000000000000000000000000815260040160405180910390fd5b5b50505050565b60006008600083815260200190815260200160002060040160019054906101000a900473ffffffffffffffffffffffffffffffffffffffff169050919050565b600e600082815260200190815260200160002060405180606001604052803373ffffffffffffffffffffffffffffffffffffffff16815260200134815260200160001515815250908060018154018082558091505060019003906000526020600020906003020160009091909190915060008201518160000160006101000a81548173ffffffffffffffffffffffffffffffffffffffff021916908373ffffffffffffffffffffffffffffffffffffffff1602179055506020820151816001015560408201518160020160006101000a81548160ff021916908315150217905550505060016009600083815260200190815260200160002060006101000a81548160ff02191690831515021790555050565b6060611c0a826120aa565b611c40576040517fa14c4b5000000000000000000000000000000000000000000000000000000000815260040160405180910390fd5b6000611c4a6125c0565b90506000815103611c6a5760405180602001604052806000815250611c95565b80611c74846125d7565b604051602001611c859291906133a2565b6040516020818303038152906040525b915050919050565b6009600083815260200190815260200160002060009054906101000a900460ff16611cfd576040517f08c379a0000000000000000000000000000000000000000000000000000000008152600401611cf49061301d565b60405180910390fd5b6008600083815260200190815260200160002060040160019054906101000a900473ffffffffffffffffffffffffffffffffffffffff16600b600084815260200190815260200160002060006101000a81548173ffffffffffffffffffffffffffffffffffffffff021916908373ffffffffffffffffffffffffffffffffffffffff160217905550306008600084815260200190815260200160002060040160016101000a81548173ffffffffffffffffffffffffffffffffffffffff021916908373ffffffffffffffffffffffffffffffffffffffff16021790555060005b600e600084815260200190815260200160002080549050811015612011578173ffffffffffffffffffffffffffffffffffffffff16600e60008581526020019081526020016000208281548110611e3757611e366133c6565b5b906000526020600020906003020160000160009054906101000a900473ffffffffffffffffffffffffffffffffffffffff1673ffffffffffffffffffffffffffffffffffffffff1603611f2a576001600e60008581526020019081526020016000208281548110611eab57611eaa6133c6565b5b906000526020600020906003020160020160006101000a81548160ff02191690831515021790555081600a600085815260200190815260200160002060006101000a81548173ffffffffffffffffffffffffffffffffffffffff021916908373ffffffffffffffffffffffffffffffffffffffff160217905550611ffe565b600e60008481526020019081526020016000208181548110611f4f57611f4e6133c6565b5b906000526020600020906003020160000160009054906101000a900473ffffffffffffffffffffffffffffffffffffffff1673ffffffffffffffffffffffffffffffffffffffff166108fc600e60008681526020019081526020016000208381548110611fbf57611fbe6133c6565b5b9060005260206000209060030201600101549081150290604051600060405180830381858888f19350505050158015611ffc573d6000803e3d6000fd5b505b80806120099061306c565b915050611ddd565b505050565b6000600760008473ffffffffffffffffffffffffffffffffffffffff1673ffffffffffffffffffffffffffffffffffffffff16815260200190815260200160002060008373ffffffffffffffffffffffffffffffffffffffff1673ffffffffffffffffffffffffffffffffffffffff16815260200190815260200160002060009054906101000a900460ff16905092915050565b6000816120b5612111565b111580156120c4575060005482105b8015612102575060007c0100000000000000000000000000000000000000000000000000000000600460008581526020019081526020016000205416145b9050919050565b600033905090565b600090565b60008082905080612125612111565b116121ab576000548110156121aa5760006004600083815260200190815260200160002054905060007c01000000000000000000000000000000000000000000000000000000008216036121a8575b6000810361219e576004600083600190039350838152602001908152602001600020549050612174565b80925050506121dd565b505b5b6040517fdf2d9b4200000000000000000000000000000000000000000000000000000000815260040160405180910390fd5b919050565b60008060006006600085815260200190815260200160002090508092508254915050915091565b600073ffffffffffffffffffffffffffffffffffffffff8316925073ffffffffffffffffffffffffffffffffffffffff821691508382148383141790509392505050565b50505050565b60008060e883901c905060e861226a868684612627565b62ffffff16901b9150509392505050565b600073ffffffffffffffffffffffffffffffffffffffff83169250814260a01b178317905092915050565b50505050565b60008054905090565b600080549050600082036122f5576040517fb562e8dd00000000000000000000000000000000000000000000000000000000815260040160405180910390fd5b612302600084838561224d565b600160406001901b178202600560008573ffffffffffffffffffffffffffffffffffffffff1673ffffffffffffffffffffffffffffffffffffffff168152602001908152602001600020600082825401925050819055506123798361236a6000866000612253565b61237385612630565b1761227b565b6004600083815260200190815260200160002081905550600080838301905073ffffffffffffffffffffffffffffffffffffffff85169150828260007fddf252ad1be2c89b69c2b068fc378daa952ba7f163c4a11628f55a4df523b3ef600080a4600183015b81811461241a57808360007fddf252ad1be2c89b69c2b068fc378daa952ba7f163c4a11628f55a4df523b3ef600080a46001810190506123df565b5060008203612455576040517f2e07630000000000000000000000000000000000000000000000000000000000815260040160405180910390fd5b80600081905550505061246b60008483856122a6565b505050565b60008373ffffffffffffffffffffffffffffffffffffffff1663150b7a02612496612109565b8786866040518563ffffffff1660e01b81526004016124b8949392919061344a565b6020604051808303816000875af19250505080156124f457506040513d601f19601f820116820180604052508101906124f191906134ab565b60015b61256d573d8060008114612524576040519150601f19603f3d011682016040523d82523d6000602084013e612529565b606091505b506000815103612565576040517fd1a57ed600000000000000000000000000000000000000000000000000000000815260040160405180910390fd5b805181602001fd5b63150b7a0260e01b7bffffffffffffffffffffffffffffffffffffffffffffffffffffffff1916817bffffffffffffffffffffffffffffffffffffffffffffffffffffffff191614915050949350505050565b606060405180602001604052806000815250905090565b606060a060405101806040526020810391506000825281835b60011561261257600184039350600a81066030018453600a81049050806125f0575b50828103602084039350808452505050919050565b60009392505050565b60006001821460e11b9050919050565b6040518060e0016040528060608152602001600081526020016000815260200160008152602001600015158152602001600073ffffffffffffffffffffffffffffffffffffffff168152602001600081525090565b6000604051905090565b600080fd5b600080fd5b60007fffffffff0000000000000000000000000000000000000000000000000000000082169050919050565b6126de816126a9565b81146126e957600080fd5b50565b6000813590506126fb816126d5565b92915050565b6000602082840312156127175761271661269f565b5b6000612725848285016126ec565b91505092915050565b60008115159050919050565b6127438161272e565b82525050565b600060208201905061275e600083018461273a565b92915050565b600081519050919050565b600082825260208201905092915050565b60005b8381101561279e578082015181840152602081019050612783565b60008484015250505050565b6000601f19601f8301169050919050565b60006127c682612764565b6127d0818561276f565b93506127e0818560208601612780565b6127e9816127aa565b840191505092915050565b6000602082019050818103600083015261280e81846127bb565b905092915050565b6000819050919050565b61282981612816565b811461283457600080fd5b50565b60008135905061284681612820565b92915050565b6000602082840312156128625761286161269f565b5b600061287084828501612837565b91505092915050565b600073ffffffffffffffffffffffffffffffffffffffff82169050919050565b60006128a482612879565b9050919050565b6128b481612899565b82525050565b60006020820190506128cf60008301846128ab565b92915050565b6128de81612899565b81146128e957600080fd5b50565b6000813590506128fb816128d5565b92915050565b600080604083850312156129185761291761269f565b5b6000612926858286016128ec565b925050602061293785828601612837565b9150509250929050565b61294a81612816565b82525050565b60006020820190506129656000830184612941565b92915050565b6000806000606084860312156129845761298361269f565b5b6000612992868287016128ec565b93505060206129a3868287016128ec565b92505060406129b486828701612837565b9150509250925092565b600082825260208201905092915050565b60006129da82612764565b6129e481856129be565b93506129f4818560208601612780565b6129fd816127aa565b840191505092915050565b612a1181612816565b82525050565b612a208161272e565b82525050565b612a2f81612899565b82525050565b600060e0830160008301518482036000860152612a5282826129cf565b9150506020830151612a676020860182612a08565b506040830151612a7a6040860182612a08565b506060830151612a8d6060860182612a08565b506080830151612aa06080860182612a17565b5060a0830151612ab360a0860182612a26565b5060c0830151612ac660c0860182612a08565b508091505092915050565b60006020820190508181036000830152612aeb8184612a35565b905092915050565b600080fd5b600080fd5b7f4e487b7100000000000000000000000000000000000000000000000000000000600052604160045260246000fd5b612b35826127aa565b810181811067ffffffffffffffff82111715612b5457612b53612afd565b5b80604052505050565b6000612b67612695565b9050612b738282612b2c565b919050565b600067ffffffffffffffff821115612b9357612b92612afd565b5b612b9c826127aa565b9050602081019050919050565b82818337600083830152505050565b6000612bcb612bc684612b78565b612b5d565b905082815260208101848484011115612be757612be6612af8565b5b612bf2848285612ba9565b509392505050565b600082601f830112612c0f57612c0e612af3565b5b8135612c1f848260208601612bb8565b91505092915050565b600080600060608486031215612c4157612c4061269f565b5b6000612c4f86828701612837565b935050602084013567ffffffffffffffff811115612c7057612c6f6126a4565b5b612c7c86828701612bfa565b9250506040612c8d86828701612837565b9150509250925092565b600060208284031215612cad57612cac61269f565b5b6000612cbb848285016128ec565b91505092915050565b60008060408385031215612cdb57612cda61269f565b5b6000612ce985828601612837565b9250506020612cfa85828601612837565b9150509250929050565b6000606082019050612d1960008301866128ab565b612d266020830185612941565b612d33604083018461273a565b949350505050565b612d448161272e565b8114612d4f57600080fd5b50565b600081359050612d6181612d3b565b92915050565b60008060408385031215612d7e57612d7d61269f565b5b6000612d8c858286016128ec565b9250506020612d9d85828601612d52565b9150509250929050565b600067ffffffffffffffff821115612dc257612dc1612afd565b5b612dcb826127aa565b9050602081019050919050565b6000612deb612de684612da7565b612b5d565b905082815260208101848484011115612e0757612e06612af8565b5b612e12848285612ba9565b509392505050565b600082601f830112612e2f57612e2e612af3565b5b8135612e3f848260208601612dd8565b91505092915050565b60008060008060808587031215612e6257612e6161269f565b5b6000612e70878288016128ec565b9450506020612e81878288016128ec565b9350506040612e9287828801612837565b925050606085013567ffffffffffffffff811115612eb357612eb26126a4565b5b612ebf87828801612e1a565b91505092959194509250565b60008060408385031215612ee257612ee161269f565b5b6000612ef085828601612837565b9250506020612f01858286016128ec565b9150509250929050565b60008060408385031215612f2257612f2161269f565b5b6000612f30858286016128ec565b9250506020612f41858286016128ec565b9150509250929050565b7f4e487b7100000000000000000000000000000000000000000000000000000000600052602260045260246000fd5b60006002820490506001821680612f9257607f821691505b602082108103612fa557612fa4612f4b565b5b50919050565b7f4e6565642074686520657363726f772070726f6365737320746f20737461727460008201527f2100000000000000000000000000000000000000000000000000000000000000602082015250565b600061300760218361276f565b915061301282612fab565b604082019050919050565b6000602082019050818103600083015261303681612ffa565b9050919050565b7f4e487b7100000000000000000000000000000000000000000000000000000000600052601160045260246000fd5b600061307782612816565b91507fffffffffffffffffffffffffffffffffffffffffffffffffffffffffffffffff82036130a9576130a861303d565b5b600182019050919050565b60008190508160005260206000209050919050565b60006020601f8301049050919050565b600082821b905092915050565b6000600883026131167fffffffffffffffffffffffffffffffffffffffffffffffffffffffffffffffff826130d9565b61312086836130d9565b95508019841693508086168417925050509392505050565b6000819050919050565b600061315d61315861315384612816565b613138565b612816565b9050919050565b6000819050919050565b61317783613142565b61318b61318382613164565b8484546130e6565b825550505050565b600090565b6131a0613193565b6131ab81848461316e565b505050565b5b818110156131cf576131c4600082613198565b6001810190506131b1565b5050565b601f821115613214576131e5816130b4565b6131ee846130c9565b810160208510156131fd578190505b613211613209856130c9565b8301826131b0565b50505b505050565b600082821c905092915050565b600061323760001984600802613219565b1980831691505092915050565b60006132508383613226565b9150826002028217905092915050565b61326982612764565b67ffffffffffffffff81111561328257613281612afd565b5b61328c8254612f7a565b6132978282856131d3565b600060209050601f8311600181146132ca57600084156132b8578287015190505b6132c28582613244565b86555061332a565b601f1984166132d8866130b4565b60005b82811015613300578489015182556001820191506020850194506020810190506132db565b8683101561331d5784890151613319601f891682613226565b8355505b6001600288020188555050505b505050505050565b600061333d82612816565b915061334883612816565b92508282019050808211156133605761335f61303d565b5b92915050565b600081905092915050565b600061337c82612764565b6133868185613366565b9350613396818560208601612780565b80840191505092915050565b60006133ae8285613371565b91506133ba8284613371565b91508190509392505050565b7f4e487b7100000000000000000000000000000000000000000000000000000000600052603260045260246000fd5b600081519050919050565b600082825260208201905092915050565b600061341c826133f5565b6134268185613400565b9350613436818560208601612780565b61343f816127aa565b840191505092915050565b600060808201905061345f60008301876128ab565b61346c60208301866128ab565b6134796040830185612941565b818103606083015261348b8184613411565b905095945050505050565b6000815190506134a5816126d5565b92915050565b6000602082840312156134c1576134c061269f565b5b60006134cf84828501613496565b9150509291505056fea26469706673582212209256d2c60322fc81522f656dd0653c3c83be75400e68422bdb1b91cc9b5decf364736f6c63430008110033",
  "linkReferences": {},
  "deployedLinkReferences": {}
}