{
  "_format": "hh-sol-artifact-1",
  "contractName": "Loan",
  "sourceName": "contracts/Loan.sol",
  "abi": [
    {
      "inputs": [],
      "name": "giveLoan",
      "outputs": [
        {
          "internalType": "bool",
          "name": "",
          "type": "bool"
        }
      ],
      "stateMutability": "payable",
      "type": "function"
    },
    {
      "inputs": [],
      "name": "loanStatus",
      "outputs": [
        {
          "internalType": "string",
          "name": "",
          "type": "string"
        }
      ],
      "stateMutability": "view",
      "type": "function"
    },
    {
      "inputs": [],
      "name": "rejectLoan",
      "outputs": [],
      "stateMutability": "nonpayable",
      "type": "function"
    },
    {
      "inputs": [],
      "name": "repayLoan",
      "outputs": [
        {
          "internalType": "string",
          "name": "",
          "type": "string"
        }
      ],
      "stateMutability": "payable",
      "type": "function"
    },
    {
      "inputs": [
        {
          "internalType": "address",
          "name": "from",
          "type": "address"
        },
        {
          "internalType": "uint256",
          "name": "amount",
          "type": "uint256"
        },
        {
          "internalType": "uint256",
          "name": "tenure",
          "type": "uint256"
        }
      ],
      "name": "requestLoan",
      "outputs": [
        {
          "internalType": "uint256",
          "name": "",
          "type": "uint256"
        }
      ],
      "stateMutability": "nonpayable",
      "type": "function"
    }
  ],
  "bytecode": "0x60806040526000805534801561001457600080fd5b50610ef6806100246000396000f3fe60806040526004361061004a5760003560e01c8063074ca9661461004f5780636f77ff551461007a5780637516c8ef146100b7578063d545b374146100ce578063f966ade7146100ec575b600080fd5b34801561005b57600080fd5b5061006461010a565b60405161007191906109ae565b60405180910390f35b34801561008657600080fd5b506100a1600480360381019061009c9190610a69565b6101f5565b6040516100ae9190610acb565b60405180910390f35b3480156100c357600080fd5b506100cc610442565b005b6100d66104b8565b6040516100e39190610b01565b60405180910390f35b6100f46105e5565b60405161010191906109ae565b60405180910390f35b60606000600360003373ffffffffffffffffffffffffffffffffffffffff1673ffffffffffffffffffffffffffffffffffffffff16815260200190815260200160002054905060016000828152602001908152602001600020600201805461017190610b4b565b80601f016020809104026020016040519081016040528092919081815260200182805461019d90610b4b565b80156101ea5780601f106101bf576101008083540402835291602001916101ea565b820191906000526020600020905b8154815290600101906020018083116101cd57829003601f168201915b505050505091505090565b600060016000546102069190610bab565b60008190555082600160008054815260200190815260200160002060000181905550816001600080548152602001908152602001600020600101819055506040518060400160405280601081526020017f4c6f616e20496e2050726f6772657373000000000000000000000000000000008152506001600080548152602001908152602001600020600201908161029d9190610dba565b5083600160008054815260200190815260200160002060030160006101000a81548173ffffffffffffffffffffffffffffffffffffffff021916908373ffffffffffffffffffffffffffffffffffffffff16021790555033600160008054815260200190815260200160002060040160006101000a81548173ffffffffffffffffffffffffffffffffffffffff021916908373ffffffffffffffffffffffffffffffffffffffff1602179055506000600160008054815260200190815260200160002060040160146101000a81548160ff0219169083151502179055506000600160008054815260200190815260200160002060040160156101000a81548160ff021916908315150217905550600054600360008673ffffffffffffffffffffffffffffffffffffffff1673ffffffffffffffffffffffffffffffffffffffff16815260200190815260200160002081905550600054600460008673ffffffffffffffffffffffffffffffffffffffff1673ffffffffffffffffffffffffffffffffffffffff1681526020019081526020016000208190555060005490509392505050565b6000600360003373ffffffffffffffffffffffffffffffffffffffff1673ffffffffffffffffffffffffffffffffffffffff16815260200190815260200160002054905060006001600083815260200190815260200160002060040160156101000a81548160ff02191690831515021790555050565b600080600360003373ffffffffffffffffffffffffffffffffffffffff1673ffffffffffffffffffffffffffffffffffffffff16815260200190815260200160002054905060006001600083815260200190815260200160002060040160009054906101000a900473ffffffffffffffffffffffffffffffffffffffff1690508073ffffffffffffffffffffffffffffffffffffffff166108fc349081150290604051600060405180830381858888f1935050505015801561057e573d6000803e3d6000fd5b50600180600084815260200190815260200160002060040160146101000a81548160ff02191690831515021790555060006001600084815260200190815260200160002060040160156101000a81548160ff02191690831515021790555060019250505090565b60606000600360003373ffffffffffffffffffffffffffffffffffffffff1673ffffffffffffffffffffffffffffffffffffffff168152602001908152602001600020549050600160008281526020019081526020016000206000015434111561066a57600060016000838152602001908152602001600020600001819055506106a7565b34600160008381526020019081526020016000206000015461068c9190610e8c565b60016000838152602001908152602001600020600001819055505b60006001600083815260200190815260200160002060030160009054906101000a900473ffffffffffffffffffffffffffffffffffffffff1690508073ffffffffffffffffffffffffffffffffffffffff166108fc349081150290604051600060405180830381858888f19350505050158015610728573d6000803e3d6000fd5b5060006001600084815260200190815260200160002060000154116108775760006001600084815260200190815260200160002060040160146101000a81548160ff0219169083151502179055506040518060400160405280600d81526020017f4c6f616e20636f6d706c657465000000000000000000000000000000000000008152506001600084815260200190815260200160002060020190816107ce9190610dba565b506001600083815260200190815260200160002060020180546107f090610b4b565b80601f016020809104026020016040519081016040528092919081815260200182805461081c90610b4b565b80156108695780601f1061083e57610100808354040283529160200191610869565b820191906000526020600020905b81548152906001019060200180831161084c57829003601f168201915b50505050509250505061091b565b60016000838152602001908152602001600020600201805461089890610b4b565b80601f01602080910402602001604051908101604052809291908181526020018280546108c490610b4b565b80156109115780601f106108e657610100808354040283529160200191610911565b820191906000526020600020905b8154815290600101906020018083116108f457829003601f168201915b5050505050925050505b90565b600081519050919050565b600082825260208201905092915050565b60005b8381101561095857808201518184015260208101905061093d565b60008484015250505050565b6000601f19601f8301169050919050565b60006109808261091e565b61098a8185610929565b935061099a81856020860161093a565b6109a381610964565b840191505092915050565b600060208201905081810360008301526109c88184610975565b905092915050565b600080fd5b600073ffffffffffffffffffffffffffffffffffffffff82169050919050565b6000610a00826109d5565b9050919050565b610a10816109f5565b8114610a1b57600080fd5b50565b600081359050610a2d81610a07565b92915050565b6000819050919050565b610a4681610a33565b8114610a5157600080fd5b50565b600081359050610a6381610a3d565b92915050565b600080600060608486031215610a8257610a816109d0565b5b6000610a9086828701610a1e565b9350506020610aa186828701610a54565b9250506040610ab286828701610a54565b9150509250925092565b610ac581610a33565b82525050565b6000602082019050610ae06000830184610abc565b92915050565b60008115159050919050565b610afb81610ae6565b82525050565b6000602082019050610b166000830184610af2565b92915050565b7f4e487b7100000000000000000000000000000000000000000000000000000000600052602260045260246000fd5b60006002820490506001821680610b6357607f821691505b602082108103610b7657610b75610b1c565b5b50919050565b7f4e487b7100000000000000000000000000000000000000000000000000000000600052601160045260246000fd5b6000610bb682610a33565b9150610bc183610a33565b9250828201905080821115610bd957610bd8610b7c565b5b92915050565b7f4e487b7100000000000000000000000000000000000000000000000000000000600052604160045260246000fd5b60008190508160005260206000209050919050565b60006020601f8301049050919050565b600082821b905092915050565b600060088302610c707fffffffffffffffffffffffffffffffffffffffffffffffffffffffffffffffff82610c33565b610c7a8683610c33565b95508019841693508086168417925050509392505050565b6000819050919050565b6000610cb7610cb2610cad84610a33565b610c92565b610a33565b9050919050565b6000819050919050565b610cd183610c9c565b610ce5610cdd82610cbe565b848454610c40565b825550505050565b600090565b610cfa610ced565b610d05818484610cc8565b505050565b5b81811015610d2957610d1e600082610cf2565b600181019050610d0b565b5050565b601f821115610d6e57610d3f81610c0e565b610d4884610c23565b81016020851015610d57578190505b610d6b610d6385610c23565b830182610d0a565b50505b505050565b600082821c905092915050565b6000610d9160001984600802610d73565b1980831691505092915050565b6000610daa8383610d80565b9150826002028217905092915050565b610dc38261091e565b67ffffffffffffffff811115610ddc57610ddb610bdf565b5b610de68254610b4b565b610df1828285610d2d565b600060209050601f831160018114610e245760008415610e12578287015190505b610e1c8582610d9e565b865550610e84565b601f198416610e3286610c0e565b60005b82811015610e5a57848901518255600182019150602085019450602081019050610e35565b86831015610e775784890151610e73601f891682610d80565b8355505b6001600288020188555050505b505050505050565b6000610e9782610a33565b9150610ea283610a33565b9250828203905081811115610eba57610eb9610b7c565b5b9291505056fea2646970667358221220898333928dda0d46a2e8e4a88610bcbc77e10c261ebc0bd020d0fc1c6a834d2564736f6c63430008110033",
  "linkReferences": {},
  "deployedLinkReferences": {}
}